{
	"crossSwap.sol": {
		"crossSwap": {
			"abi": [
				{
					"inputs": [
						{
							"internalType": "uint256",
							"name": "",
							"type": "uint256"
						}
					],
					"name": "connectors",
					"outputs": [
						{
							"internalType": "address",
							"name": "",
							"type": "address"
						}
					],
					"stateMutability": "view",
					"type": "function"
				},
				{
					"inputs": [
						{
							"internalType": "uint256",
							"name": "amountIn",
							"type": "uint256"
						},
						{
							"internalType": "address",
							"name": "tokenIn",
							"type": "address"
						},
						{
							"internalType": "address",
							"name": "tokenOut",
							"type": "address"
						}
					],
					"name": "quote",
					"outputs": [
						{
							"internalType": "uint256",
							"name": "amountOut",
							"type": "uint256"
						},
						{
							"internalType": "address",
							"name": "router",
							"type": "address"
						},
						{
							"internalType": "address[]",
							"name": "path",
							"type": "address[]"
						}
					],
					"stateMutability": "view",
					"type": "function"
				},
				{
					"inputs": [
						{
							"internalType": "uint256",
							"name": "",
							"type": "uint256"
						}
					],
					"name": "routers",
					"outputs": [
						{
							"internalType": "address",
							"name": "",
							"type": "address"
						}
					],
					"stateMutability": "view",
					"type": "function"
				},
				{
					"inputs": [
						{
							"internalType": "uint256",
							"name": "amountIn",
							"type": "uint256"
						},
						{
							"internalType": "uint256",
							"name": "amountOutMin",
							"type": "uint256"
						},
						{
							"internalType": "address",
							"name": "router",
							"type": "address"
						},
						{
							"internalType": "address[]",
							"name": "path",
							"type": "address[]"
						}
					],
					"name": "swap",
					"outputs": [
						{
							"internalType": "uint256",
							"name": "amountOut",
							"type": "uint256"
						}
					],
					"stateMutability": "nonpayable",
					"type": "function"
				}
			],
			"devdoc": {
				"kind": "dev",
				"methods": {},
				"version": 1
			},
			"evm": {
				"assembly": "    /* \"crossSwap.sol\":58:1216  contract crossSwap {... */\n  mstore(0x40, 0x80)\n  callvalue\n  dup1\n  iszero\n  tag_1\n  jumpi\n  0x00\n  dup1\n  revert\ntag_1:\n  pop\n  dataSize(sub_0)\n  dup1\n  dataOffset(sub_0)\n  0x00\n  codecopy\n  0x00\n  return\nstop\n\nsub_0: assembly {\n        /* \"crossSwap.sol\":58:1216  contract crossSwap {... */\n      mstore(0x40, 0x80)\n      callvalue\n      dup1\n      iszero\n      tag_1\n      jumpi\n      0x00\n      dup1\n      revert\n    tag_1:\n      pop\n      jumpi(tag_2, lt(calldatasize, 0x04))\n      shr(0xe0, calldataload(0x00))\n      dup1\n      0x13ede1a1\n      eq\n      tag_3\n      jumpi\n      dup1\n      0x4e9c1118\n      eq\n      tag_4\n      jumpi\n      dup1\n      0x80ee43f5\n      eq\n      tag_5\n      jumpi\n      dup1\n      0xb3d69dac\n      eq\n      tag_6\n      jumpi\n    tag_2:\n      0x00\n      dup1\n      revert\n        /* \"crossSwap.sol\":113:140  address[] public connectors */\n    tag_3:\n      tag_7\n      0x04\n      dup1\n      calldatasize\n      sub\n      dup2\n      add\n      swap1\n      tag_8\n      swap2\n      swap1\n      tag_9\n      jump\t// in\n    tag_8:\n      tag_10\n      jump\t// in\n    tag_7:\n      mload(0x40)\n      tag_11\n      swap2\n      swap1\n      tag_12\n      jump\t// in\n    tag_11:\n      mload(0x40)\n      dup1\n      swap2\n      sub\n      swap1\n      return\n        /* \"crossSwap.sol\":83:107  address[] public routers */\n    tag_4:\n      tag_13\n      0x04\n      dup1\n      calldatasize\n      sub\n      dup2\n      add\n      swap1\n      tag_14\n      swap2\n      swap1\n      tag_9\n      jump\t// in\n    tag_14:\n      tag_15\n      jump\t// in\n    tag_13:\n      mload(0x40)\n      tag_16\n      swap2\n      swap1\n      tag_12\n      jump\t// in\n    tag_16:\n      mload(0x40)\n      dup1\n      swap2\n      sub\n      swap1\n      return\n        /* \"crossSwap.sol\":523:719  function quote(... */\n    tag_5:\n      tag_17\n      0x04\n      dup1\n      calldatasize\n      sub\n      dup2\n      add\n      swap1\n      tag_18\n      swap2\n      swap1\n      tag_19\n      jump\t// in\n    tag_18:\n      tag_20\n      jump\t// in\n    tag_17:\n      mload(0x40)\n      tag_21\n      swap4\n      swap3\n      swap2\n      swap1\n      tag_22\n      jump\t// in\n    tag_21:\n      mload(0x40)\n      dup1\n      swap2\n      sub\n      swap1\n      return\n        /* \"crossSwap.sol\":1032:1214  function swap(... */\n    tag_6:\n      tag_23\n      0x04\n      dup1\n      calldatasize\n      sub\n      dup2\n      add\n      swap1\n      tag_24\n      swap2\n      swap1\n      tag_25\n      jump\t// in\n    tag_24:\n      tag_26\n      jump\t// in\n    tag_23:\n      mload(0x40)\n      tag_27\n      swap2\n      swap1\n      tag_28\n      jump\t// in\n    tag_27:\n      mload(0x40)\n      dup1\n      swap2\n      sub\n      swap1\n      return\n        /* \"crossSwap.sol\":113:140  address[] public connectors */\n    tag_10:\n      0x01\n      dup2\n      dup2\n      sload\n      dup2\n      lt\n      tag_29\n      jumpi\n      0x00\n      dup1\n      revert\n    tag_29:\n      swap1\n      0x00\n      mstore\n      keccak256(0x00, 0x20)\n      add\n      0x00\n      swap2\n      pop\n      sload\n      swap1\n      0x0100\n      exp\n      swap1\n      div\n      0xffffffffffffffffffffffffffffffffffffffff\n      and\n      dup2\n      jump\t// out\n        /* \"crossSwap.sol\":83:107  address[] public routers */\n    tag_15:\n      0x00\n      dup2\n      dup2\n      sload\n      dup2\n      lt\n      tag_31\n      jumpi\n      0x00\n      dup1\n      revert\n    tag_31:\n      swap1\n      0x00\n      mstore\n      keccak256(0x00, 0x20)\n      add\n      0x00\n      swap2\n      pop\n      sload\n      swap1\n      0x0100\n      exp\n      swap1\n      div\n      0xffffffffffffffffffffffffffffffffffffffff\n      and\n      dup2\n      jump\t// out\n        /* \"crossSwap.sol\":523:719  function quote(... */\n    tag_20:\n        /* \"crossSwap.sol\":641:655  uint amountOut */\n      0x00\n        /* \"crossSwap.sol\":657:671  address router */\n      dup1\n        /* \"crossSwap.sol\":673:694  address[] memory path */\n      0x60\n        /* \"crossSwap.sol\":523:719  function quote(... */\n      swap4\n      pop\n      swap4\n      pop\n      swap4\n      swap1\n      pop\n      jump\t// out\n        /* \"crossSwap.sol\":1032:1214  function swap(... */\n    tag_26:\n        /* \"crossSwap.sol\":1175:1189  uint amountOut */\n      0x00\n        /* \"crossSwap.sol\":1032:1214  function swap(... */\n      swap5\n      swap4\n      pop\n      pop\n      pop\n      pop\n      jump\t// out\n        /* \"#utility.yul\":7:82   */\n    tag_35:\n        /* \"#utility.yul\":40:46   */\n      0x00\n        /* \"#utility.yul\":73:75   */\n      0x40\n        /* \"#utility.yul\":67:76   */\n      mload\n        /* \"#utility.yul\":57:76   */\n      swap1\n      pop\n        /* \"#utility.yul\":7:82   */\n      swap1\n      jump\t// out\n        /* \"#utility.yul\":88:205   */\n    tag_36:\n        /* \"#utility.yul\":197:198   */\n      0x00\n        /* \"#utility.yul\":194:195   */\n      dup1\n        /* \"#utility.yul\":187:199   */\n      revert\n        /* \"#utility.yul\":211:328   */\n    tag_37:\n        /* \"#utility.yul\":320:321   */\n      0x00\n        /* \"#utility.yul\":317:318   */\n      dup1\n        /* \"#utility.yul\":310:322   */\n      revert\n        /* \"#utility.yul\":334:411   */\n    tag_38:\n        /* \"#utility.yul\":371:378   */\n      0x00\n        /* \"#utility.yul\":400:405   */\n      dup2\n        /* \"#utility.yul\":389:405   */\n      swap1\n      pop\n        /* \"#utility.yul\":334:411   */\n      swap2\n      swap1\n      pop\n      jump\t// out\n        /* \"#utility.yul\":417:539   */\n    tag_39:\n        /* \"#utility.yul\":490:514   */\n      tag_69\n        /* \"#utility.yul\":508:513   */\n      dup2\n        /* \"#utility.yul\":490:514   */\n      tag_38\n      jump\t// in\n    tag_69:\n        /* \"#utility.yul\":483:488   */\n      dup2\n        /* \"#utility.yul\":480:515   */\n      eq\n        /* \"#utility.yul\":470:533   */\n      tag_70\n      jumpi\n        /* \"#utility.yul\":529:530   */\n      0x00\n        /* \"#utility.yul\":526:527   */\n      dup1\n        /* \"#utility.yul\":519:531   */\n      revert\n        /* \"#utility.yul\":470:533   */\n    tag_70:\n        /* \"#utility.yul\":417:539   */\n      pop\n      jump\t// out\n        /* \"#utility.yul\":545:684   */\n    tag_40:\n        /* \"#utility.yul\":591:596   */\n      0x00\n        /* \"#utility.yul\":629:635   */\n      dup2\n        /* \"#utility.yul\":616:636   */\n      calldataload\n        /* \"#utility.yul\":607:636   */\n      swap1\n      pop\n        /* \"#utility.yul\":645:678   */\n      tag_72\n        /* \"#utility.yul\":672:677   */\n      dup2\n        /* \"#utility.yul\":645:678   */\n      tag_39\n      jump\t// in\n    tag_72:\n        /* \"#utility.yul\":545:684   */\n      swap3\n      swap2\n      pop\n      pop\n      jump\t// out\n        /* \"#utility.yul\":690:1019   */\n    tag_9:\n        /* \"#utility.yul\":749:755   */\n      0x00\n        /* \"#utility.yul\":798:800   */\n      0x20\n        /* \"#utility.yul\":786:795   */\n      dup3\n        /* \"#utility.yul\":777:784   */\n      dup5\n        /* \"#utility.yul\":773:796   */\n      sub\n        /* \"#utility.yul\":769:801   */\n      slt\n        /* \"#utility.yul\":766:885   */\n      iszero\n      tag_74\n      jumpi\n        /* \"#utility.yul\":804:883   */\n      tag_75\n      tag_36\n      jump\t// in\n    tag_75:\n        /* \"#utility.yul\":766:885   */\n    tag_74:\n        /* \"#utility.yul\":924:925   */\n      0x00\n        /* \"#utility.yul\":949:1002   */\n      tag_76\n        /* \"#utility.yul\":994:1001   */\n      dup5\n        /* \"#utility.yul\":985:991   */\n      dup3\n        /* \"#utility.yul\":974:983   */\n      dup6\n        /* \"#utility.yul\":970:992   */\n      add\n        /* \"#utility.yul\":949:1002   */\n      tag_40\n      jump\t// in\n    tag_76:\n        /* \"#utility.yul\":939:1002   */\n      swap2\n      pop\n        /* \"#utility.yul\":895:1012   */\n      pop\n        /* \"#utility.yul\":690:1019   */\n      swap3\n      swap2\n      pop\n      pop\n      jump\t// out\n        /* \"#utility.yul\":1025:1151   */\n    tag_41:\n        /* \"#utility.yul\":1062:1069   */\n      0x00\n        /* \"#utility.yul\":1102:1144   */\n      0xffffffffffffffffffffffffffffffffffffffff\n        /* \"#utility.yul\":1095:1100   */\n      dup3\n        /* \"#utility.yul\":1091:1145   */\n      and\n        /* \"#utility.yul\":1080:1145   */\n      swap1\n      pop\n        /* \"#utility.yul\":1025:1151   */\n      swap2\n      swap1\n      pop\n      jump\t// out\n        /* \"#utility.yul\":1157:1253   */\n    tag_42:\n        /* \"#utility.yul\":1194:1201   */\n      0x00\n        /* \"#utility.yul\":1223:1247   */\n      tag_79\n        /* \"#utility.yul\":1241:1246   */\n      dup3\n        /* \"#utility.yul\":1223:1247   */\n      tag_41\n      jump\t// in\n    tag_79:\n        /* \"#utility.yul\":1212:1247   */\n      swap1\n      pop\n        /* \"#utility.yul\":1157:1253   */\n      swap2\n      swap1\n      pop\n      jump\t// out\n        /* \"#utility.yul\":1259:1377   */\n    tag_43:\n        /* \"#utility.yul\":1346:1370   */\n      tag_81\n        /* \"#utility.yul\":1364:1369   */\n      dup2\n        /* \"#utility.yul\":1346:1370   */\n      tag_42\n      jump\t// in\n    tag_81:\n        /* \"#utility.yul\":1341:1344   */\n      dup3\n        /* \"#utility.yul\":1334:1371   */\n      mstore\n        /* \"#utility.yul\":1259:1377   */\n      pop\n      pop\n      jump\t// out\n        /* \"#utility.yul\":1383:1605   */\n    tag_12:\n        /* \"#utility.yul\":1476:1480   */\n      0x00\n        /* \"#utility.yul\":1514:1516   */\n      0x20\n        /* \"#utility.yul\":1503:1512   */\n      dup3\n        /* \"#utility.yul\":1499:1517   */\n      add\n        /* \"#utility.yul\":1491:1517   */\n      swap1\n      pop\n        /* \"#utility.yul\":1527:1598   */\n      tag_83\n        /* \"#utility.yul\":1595:1596   */\n      0x00\n        /* \"#utility.yul\":1584:1593   */\n      dup4\n        /* \"#utility.yul\":1580:1597   */\n      add\n        /* \"#utility.yul\":1571:1577   */\n      dup5\n        /* \"#utility.yul\":1527:1598   */\n      tag_43\n      jump\t// in\n    tag_83:\n        /* \"#utility.yul\":1383:1605   */\n      swap3\n      swap2\n      pop\n      pop\n      jump\t// out\n        /* \"#utility.yul\":1611:1733   */\n    tag_44:\n        /* \"#utility.yul\":1684:1708   */\n      tag_85\n        /* \"#utility.yul\":1702:1707   */\n      dup2\n        /* \"#utility.yul\":1684:1708   */\n      tag_42\n      jump\t// in\n    tag_85:\n        /* \"#utility.yul\":1677:1682   */\n      dup2\n        /* \"#utility.yul\":1674:1709   */\n      eq\n        /* \"#utility.yul\":1664:1727   */\n      tag_86\n      jumpi\n        /* \"#utility.yul\":1723:1724   */\n      0x00\n        /* \"#utility.yul\":1720:1721   */\n      dup1\n        /* \"#utility.yul\":1713:1725   */\n      revert\n        /* \"#utility.yul\":1664:1727   */\n    tag_86:\n        /* \"#utility.yul\":1611:1733   */\n      pop\n      jump\t// out\n        /* \"#utility.yul\":1739:1878   */\n    tag_45:\n        /* \"#utility.yul\":1785:1790   */\n      0x00\n        /* \"#utility.yul\":1823:1829   */\n      dup2\n        /* \"#utility.yul\":1810:1830   */\n      calldataload\n        /* \"#utility.yul\":1801:1830   */\n      swap1\n      pop\n        /* \"#utility.yul\":1839:1872   */\n      tag_88\n        /* \"#utility.yul\":1866:1871   */\n      dup2\n        /* \"#utility.yul\":1839:1872   */\n      tag_44\n      jump\t// in\n    tag_88:\n        /* \"#utility.yul\":1739:1878   */\n      swap3\n      swap2\n      pop\n      pop\n      jump\t// out\n        /* \"#utility.yul\":1884:2503   */\n    tag_19:\n        /* \"#utility.yul\":1961:1967   */\n      0x00\n        /* \"#utility.yul\":1969:1975   */\n      dup1\n        /* \"#utility.yul\":1977:1983   */\n      0x00\n        /* \"#utility.yul\":2026:2028   */\n      0x60\n        /* \"#utility.yul\":2014:2023   */\n      dup5\n        /* \"#utility.yul\":2005:2012   */\n      dup7\n        /* \"#utility.yul\":2001:2024   */\n      sub\n        /* \"#utility.yul\":1997:2029   */\n      slt\n        /* \"#utility.yul\":1994:2113   */\n      iszero\n      tag_90\n      jumpi\n        /* \"#utility.yul\":2032:2111   */\n      tag_91\n      tag_36\n      jump\t// in\n    tag_91:\n        /* \"#utility.yul\":1994:2113   */\n    tag_90:\n        /* \"#utility.yul\":2152:2153   */\n      0x00\n        /* \"#utility.yul\":2177:2230   */\n      tag_92\n        /* \"#utility.yul\":2222:2229   */\n      dup7\n        /* \"#utility.yul\":2213:2219   */\n      dup3\n        /* \"#utility.yul\":2202:2211   */\n      dup8\n        /* \"#utility.yul\":2198:2220   */\n      add\n        /* \"#utility.yul\":2177:2230   */\n      tag_40\n      jump\t// in\n    tag_92:\n        /* \"#utility.yul\":2167:2230   */\n      swap4\n      pop\n        /* \"#utility.yul\":2123:2240   */\n      pop\n        /* \"#utility.yul\":2279:2281   */\n      0x20\n        /* \"#utility.yul\":2305:2358   */\n      tag_93\n        /* \"#utility.yul\":2350:2357   */\n      dup7\n        /* \"#utility.yul\":2341:2347   */\n      dup3\n        /* \"#utility.yul\":2330:2339   */\n      dup8\n        /* \"#utility.yul\":2326:2348   */\n      add\n        /* \"#utility.yul\":2305:2358   */\n      tag_45\n      jump\t// in\n    tag_93:\n        /* \"#utility.yul\":2295:2358   */\n      swap3\n      pop\n        /* \"#utility.yul\":2250:2368   */\n      pop\n        /* \"#utility.yul\":2407:2409   */\n      0x40\n        /* \"#utility.yul\":2433:2486   */\n      tag_94\n        /* \"#utility.yul\":2478:2485   */\n      dup7\n        /* \"#utility.yul\":2469:2475   */\n      dup3\n        /* \"#utility.yul\":2458:2467   */\n      dup8\n        /* \"#utility.yul\":2454:2476   */\n      add\n        /* \"#utility.yul\":2433:2486   */\n      tag_45\n      jump\t// in\n    tag_94:\n        /* \"#utility.yul\":2423:2486   */\n      swap2\n      pop\n        /* \"#utility.yul\":2378:2496   */\n      pop\n        /* \"#utility.yul\":1884:2503   */\n      swap3\n      pop\n      swap3\n      pop\n      swap3\n      jump\t// out\n        /* \"#utility.yul\":2509:2627   */\n    tag_46:\n        /* \"#utility.yul\":2596:2620   */\n      tag_96\n        /* \"#utility.yul\":2614:2619   */\n      dup2\n        /* \"#utility.yul\":2596:2620   */\n      tag_38\n      jump\t// in\n    tag_96:\n        /* \"#utility.yul\":2591:2594   */\n      dup3\n        /* \"#utility.yul\":2584:2621   */\n      mstore\n        /* \"#utility.yul\":2509:2627   */\n      pop\n      pop\n      jump\t// out\n        /* \"#utility.yul\":2633:2747   */\n    tag_47:\n        /* \"#utility.yul\":2700:2706   */\n      0x00\n        /* \"#utility.yul\":2734:2739   */\n      dup2\n        /* \"#utility.yul\":2728:2740   */\n      mload\n        /* \"#utility.yul\":2718:2740   */\n      swap1\n      pop\n        /* \"#utility.yul\":2633:2747   */\n      swap2\n      swap1\n      pop\n      jump\t// out\n        /* \"#utility.yul\":2753:2937   */\n    tag_48:\n        /* \"#utility.yul\":2852:2863   */\n      0x00\n        /* \"#utility.yul\":2886:2892   */\n      dup3\n        /* \"#utility.yul\":2881:2884   */\n      dup3\n        /* \"#utility.yul\":2874:2893   */\n      mstore\n        /* \"#utility.yul\":2926:2930   */\n      0x20\n        /* \"#utility.yul\":2921:2924   */\n      dup3\n        /* \"#utility.yul\":2917:2931   */\n      add\n        /* \"#utility.yul\":2902:2931   */\n      swap1\n      pop\n        /* \"#utility.yul\":2753:2937   */\n      swap3\n      swap2\n      pop\n      pop\n      jump\t// out\n        /* \"#utility.yul\":2943:3075   */\n    tag_49:\n        /* \"#utility.yul\":3010:3014   */\n      0x00\n        /* \"#utility.yul\":3033:3036   */\n      dup2\n        /* \"#utility.yul\":3025:3036   */\n      swap1\n      pop\n        /* \"#utility.yul\":3063:3067   */\n      0x20\n        /* \"#utility.yul\":3058:3061   */\n      dup3\n        /* \"#utility.yul\":3054:3068   */\n      add\n        /* \"#utility.yul\":3046:3068   */\n      swap1\n      pop\n        /* \"#utility.yul\":2943:3075   */\n      swap2\n      swap1\n      pop\n      jump\t// out\n        /* \"#utility.yul\":3081:3189   */\n    tag_50:\n        /* \"#utility.yul\":3158:3182   */\n      tag_101\n        /* \"#utility.yul\":3176:3181   */\n      dup2\n        /* \"#utility.yul\":3158:3182   */\n      tag_42\n      jump\t// in\n    tag_101:\n        /* \"#utility.yul\":3153:3156   */\n      dup3\n        /* \"#utility.yul\":3146:3183   */\n      mstore\n        /* \"#utility.yul\":3081:3189   */\n      pop\n      pop\n      jump\t// out\n        /* \"#utility.yul\":3195:3374   */\n    tag_51:\n        /* \"#utility.yul\":3264:3274   */\n      0x00\n        /* \"#utility.yul\":3285:3331   */\n      tag_103\n        /* \"#utility.yul\":3327:3330   */\n      dup4\n        /* \"#utility.yul\":3319:3325   */\n      dup4\n        /* \"#utility.yul\":3285:3331   */\n      tag_50\n      jump\t// in\n    tag_103:\n        /* \"#utility.yul\":3363:3367   */\n      0x20\n        /* \"#utility.yul\":3358:3361   */\n      dup4\n        /* \"#utility.yul\":3354:3368   */\n      add\n        /* \"#utility.yul\":3340:3368   */\n      swap1\n      pop\n        /* \"#utility.yul\":3195:3374   */\n      swap3\n      swap2\n      pop\n      pop\n      jump\t// out\n        /* \"#utility.yul\":3380:3493   */\n    tag_52:\n        /* \"#utility.yul\":3450:3454   */\n      0x00\n        /* \"#utility.yul\":3482:3486   */\n      0x20\n        /* \"#utility.yul\":3477:3480   */\n      dup3\n        /* \"#utility.yul\":3473:3487   */\n      add\n        /* \"#utility.yul\":3465:3487   */\n      swap1\n      pop\n        /* \"#utility.yul\":3380:3493   */\n      swap2\n      swap1\n      pop\n      jump\t// out\n        /* \"#utility.yul\":3529:4261   */\n    tag_53:\n        /* \"#utility.yul\":3648:3651   */\n      0x00\n        /* \"#utility.yul\":3677:3731   */\n      tag_106\n        /* \"#utility.yul\":3725:3730   */\n      dup3\n        /* \"#utility.yul\":3677:3731   */\n      tag_47\n      jump\t// in\n    tag_106:\n        /* \"#utility.yul\":3747:3833   */\n      tag_107\n        /* \"#utility.yul\":3826:3832   */\n      dup2\n        /* \"#utility.yul\":3821:3824   */\n      dup6\n        /* \"#utility.yul\":3747:3833   */\n      tag_48\n      jump\t// in\n    tag_107:\n        /* \"#utility.yul\":3740:3833   */\n      swap4\n      pop\n        /* \"#utility.yul\":3857:3913   */\n      tag_108\n        /* \"#utility.yul\":3907:3912   */\n      dup4\n        /* \"#utility.yul\":3857:3913   */\n      tag_49\n      jump\t// in\n    tag_108:\n        /* \"#utility.yul\":3936:3943   */\n      dup1\n        /* \"#utility.yul\":3967:3968   */\n      0x00\n        /* \"#utility.yul\":3952:4236   */\n    tag_109:\n        /* \"#utility.yul\":3977:3983   */\n      dup4\n        /* \"#utility.yul\":3974:3975   */\n      dup2\n        /* \"#utility.yul\":3971:3984   */\n      lt\n        /* \"#utility.yul\":3952:4236   */\n      iszero\n      tag_111\n      jumpi\n        /* \"#utility.yul\":4053:4059   */\n      dup2\n        /* \"#utility.yul\":4047:4060   */\n      mload\n        /* \"#utility.yul\":4080:4143   */\n      tag_112\n        /* \"#utility.yul\":4139:4142   */\n      dup9\n        /* \"#utility.yul\":4124:4137   */\n      dup3\n        /* \"#utility.yul\":4080:4143   */\n      tag_51\n      jump\t// in\n    tag_112:\n        /* \"#utility.yul\":4073:4143   */\n      swap8\n      pop\n        /* \"#utility.yul\":4166:4226   */\n      tag_113\n        /* \"#utility.yul\":4219:4225   */\n      dup4\n        /* \"#utility.yul\":4166:4226   */\n      tag_52\n      jump\t// in\n    tag_113:\n        /* \"#utility.yul\":4156:4226   */\n      swap3\n      pop\n        /* \"#utility.yul\":4012:4236   */\n      pop\n        /* \"#utility.yul\":3999:4000   */\n      0x01\n        /* \"#utility.yul\":3996:3997   */\n      dup2\n        /* \"#utility.yul\":3992:4001   */\n      add\n        /* \"#utility.yul\":3987:4001   */\n      swap1\n      pop\n        /* \"#utility.yul\":3952:4236   */\n      jump(tag_109)\n    tag_111:\n        /* \"#utility.yul\":3956:3970   */\n      pop\n        /* \"#utility.yul\":4252:4255   */\n      dup6\n        /* \"#utility.yul\":4245:4255   */\n      swap4\n      pop\n        /* \"#utility.yul\":3653:4261   */\n      pop\n      pop\n      pop\n        /* \"#utility.yul\":3529:4261   */\n      swap3\n      swap2\n      pop\n      pop\n      jump\t// out\n        /* \"#utility.yul\":4267:4860   */\n    tag_22:\n        /* \"#utility.yul\":4466:4470   */\n      0x00\n        /* \"#utility.yul\":4504:4506   */\n      0x60\n        /* \"#utility.yul\":4493:4502   */\n      dup3\n        /* \"#utility.yul\":4489:4507   */\n      add\n        /* \"#utility.yul\":4481:4507   */\n      swap1\n      pop\n        /* \"#utility.yul\":4517:4588   */\n      tag_115\n        /* \"#utility.yul\":4585:4586   */\n      0x00\n        /* \"#utility.yul\":4574:4583   */\n      dup4\n        /* \"#utility.yul\":4570:4587   */\n      add\n        /* \"#utility.yul\":4561:4567   */\n      dup7\n        /* \"#utility.yul\":4517:4588   */\n      tag_46\n      jump\t// in\n    tag_115:\n        /* \"#utility.yul\":4598:4670   */\n      tag_116\n        /* \"#utility.yul\":4666:4668   */\n      0x20\n        /* \"#utility.yul\":4655:4664   */\n      dup4\n        /* \"#utility.yul\":4651:4669   */\n      add\n        /* \"#utility.yul\":4642:4648   */\n      dup6\n        /* \"#utility.yul\":4598:4670   */\n      tag_43\n      jump\t// in\n    tag_116:\n        /* \"#utility.yul\":4717:4726   */\n      dup2\n        /* \"#utility.yul\":4711:4715   */\n      dup2\n        /* \"#utility.yul\":4707:4727   */\n      sub\n        /* \"#utility.yul\":4702:4704   */\n      0x40\n        /* \"#utility.yul\":4691:4700   */\n      dup4\n        /* \"#utility.yul\":4687:4705   */\n      add\n        /* \"#utility.yul\":4680:4728   */\n      mstore\n        /* \"#utility.yul\":4745:4853   */\n      tag_117\n        /* \"#utility.yul\":4848:4852   */\n      dup2\n        /* \"#utility.yul\":4839:4845   */\n      dup5\n        /* \"#utility.yul\":4745:4853   */\n      tag_53\n      jump\t// in\n    tag_117:\n        /* \"#utility.yul\":4737:4853   */\n      swap1\n      pop\n        /* \"#utility.yul\":4267:4860   */\n      swap5\n      swap4\n      pop\n      pop\n      pop\n      pop\n      jump\t// out\n        /* \"#utility.yul\":4866:4983   */\n    tag_54:\n        /* \"#utility.yul\":4975:4976   */\n      0x00\n        /* \"#utility.yul\":4972:4973   */\n      dup1\n        /* \"#utility.yul\":4965:4977   */\n      revert\n        /* \"#utility.yul\":4989:5091   */\n    tag_55:\n        /* \"#utility.yul\":5030:5036   */\n      0x00\n        /* \"#utility.yul\":5081:5083   */\n      0x1f\n        /* \"#utility.yul\":5077:5084   */\n      not\n        /* \"#utility.yul\":5072:5074   */\n      0x1f\n        /* \"#utility.yul\":5065:5070   */\n      dup4\n        /* \"#utility.yul\":5061:5075   */\n      add\n        /* \"#utility.yul\":5057:5085   */\n      and\n        /* \"#utility.yul\":5047:5085   */\n      swap1\n      pop\n        /* \"#utility.yul\":4989:5091   */\n      swap2\n      swap1\n      pop\n      jump\t// out\n        /* \"#utility.yul\":5097:5277   */\n    tag_56:\n        /* \"#utility.yul\":5145:5222   */\n      0x4e487b7100000000000000000000000000000000000000000000000000000000\n        /* \"#utility.yul\":5142:5143   */\n      0x00\n        /* \"#utility.yul\":5135:5223   */\n      mstore\n        /* \"#utility.yul\":5242:5246   */\n      0x41\n        /* \"#utility.yul\":5239:5240   */\n      0x04\n        /* \"#utility.yul\":5232:5247   */\n      mstore\n        /* \"#utility.yul\":5266:5270   */\n      0x24\n        /* \"#utility.yul\":5263:5264   */\n      0x00\n        /* \"#utility.yul\":5256:5271   */\n      revert\n        /* \"#utility.yul\":5283:5564   */\n    tag_57:\n        /* \"#utility.yul\":5366:5393   */\n      tag_122\n        /* \"#utility.yul\":5388:5392   */\n      dup3\n        /* \"#utility.yul\":5366:5393   */\n      tag_55\n      jump\t// in\n    tag_122:\n        /* \"#utility.yul\":5358:5364   */\n      dup2\n        /* \"#utility.yul\":5354:5394   */\n      add\n        /* \"#utility.yul\":5496:5502   */\n      dup2\n        /* \"#utility.yul\":5484:5494   */\n      dup2\n        /* \"#utility.yul\":5481:5503   */\n      lt\n        /* \"#utility.yul\":5460:5478   */\n      0xffffffffffffffff\n        /* \"#utility.yul\":5448:5458   */\n      dup3\n        /* \"#utility.yul\":5445:5479   */\n      gt\n        /* \"#utility.yul\":5442:5504   */\n      or\n        /* \"#utility.yul\":5439:5527   */\n      iszero\n      tag_123\n      jumpi\n        /* \"#utility.yul\":5507:5525   */\n      tag_124\n      tag_56\n      jump\t// in\n    tag_124:\n        /* \"#utility.yul\":5439:5527   */\n    tag_123:\n        /* \"#utility.yul\":5547:5557   */\n      dup1\n        /* \"#utility.yul\":5543:5545   */\n      0x40\n        /* \"#utility.yul\":5536:5558   */\n      mstore\n        /* \"#utility.yul\":5326:5564   */\n      pop\n        /* \"#utility.yul\":5283:5564   */\n      pop\n      pop\n      jump\t// out\n        /* \"#utility.yul\":5570:5699   */\n    tag_58:\n        /* \"#utility.yul\":5604:5610   */\n      0x00\n        /* \"#utility.yul\":5631:5651   */\n      tag_126\n      tag_35\n      jump\t// in\n    tag_126:\n        /* \"#utility.yul\":5621:5651   */\n      swap1\n      pop\n        /* \"#utility.yul\":5660:5693   */\n      tag_127\n        /* \"#utility.yul\":5688:5692   */\n      dup3\n        /* \"#utility.yul\":5680:5686   */\n      dup3\n        /* \"#utility.yul\":5660:5693   */\n      tag_57\n      jump\t// in\n    tag_127:\n        /* \"#utility.yul\":5570:5699   */\n      swap2\n      swap1\n      pop\n      jump\t// out\n        /* \"#utility.yul\":5705:6016   */\n    tag_59:\n        /* \"#utility.yul\":5782:5786   */\n      0x00\n        /* \"#utility.yul\":5872:5890   */\n      0xffffffffffffffff\n        /* \"#utility.yul\":5864:5870   */\n      dup3\n        /* \"#utility.yul\":5861:5891   */\n      gt\n        /* \"#utility.yul\":5858:5914   */\n      iszero\n      tag_129\n      jumpi\n        /* \"#utility.yul\":5894:5912   */\n      tag_130\n      tag_56\n      jump\t// in\n    tag_130:\n        /* \"#utility.yul\":5858:5914   */\n    tag_129:\n        /* \"#utility.yul\":5944:5948   */\n      0x20\n        /* \"#utility.yul\":5936:5942   */\n      dup3\n        /* \"#utility.yul\":5932:5949   */\n      mul\n        /* \"#utility.yul\":5924:5949   */\n      swap1\n      pop\n        /* \"#utility.yul\":6004:6008   */\n      0x20\n        /* \"#utility.yul\":5998:6002   */\n      dup2\n        /* \"#utility.yul\":5994:6009   */\n      add\n        /* \"#utility.yul\":5986:6009   */\n      swap1\n      pop\n        /* \"#utility.yul\":5705:6016   */\n      swap2\n      swap1\n      pop\n      jump\t// out\n        /* \"#utility.yul\":6022:6139   */\n    tag_60:\n        /* \"#utility.yul\":6131:6132   */\n      0x00\n        /* \"#utility.yul\":6128:6129   */\n      dup1\n        /* \"#utility.yul\":6121:6133   */\n      revert\n        /* \"#utility.yul\":6162:6872   */\n    tag_61:\n        /* \"#utility.yul\":6258:6263   */\n      0x00\n        /* \"#utility.yul\":6283:6364   */\n      tag_133\n        /* \"#utility.yul\":6299:6363   */\n      tag_134\n        /* \"#utility.yul\":6356:6362   */\n      dup5\n        /* \"#utility.yul\":6299:6363   */\n      tag_59\n      jump\t// in\n    tag_134:\n        /* \"#utility.yul\":6283:6364   */\n      tag_58\n      jump\t// in\n    tag_133:\n        /* \"#utility.yul\":6274:6364   */\n      swap1\n      pop\n        /* \"#utility.yul\":6384:6389   */\n      dup1\n        /* \"#utility.yul\":6413:6419   */\n      dup4\n        /* \"#utility.yul\":6406:6411   */\n      dup3\n        /* \"#utility.yul\":6399:6420   */\n      mstore\n        /* \"#utility.yul\":6447:6451   */\n      0x20\n        /* \"#utility.yul\":6440:6445   */\n      dup3\n        /* \"#utility.yul\":6436:6452   */\n      add\n        /* \"#utility.yul\":6429:6452   */\n      swap1\n      pop\n        /* \"#utility.yul\":6500:6504   */\n      0x20\n        /* \"#utility.yul\":6492:6498   */\n      dup5\n        /* \"#utility.yul\":6488:6505   */\n      mul\n        /* \"#utility.yul\":6480:6486   */\n      dup4\n        /* \"#utility.yul\":6476:6506   */\n      add\n        /* \"#utility.yul\":6529:6532   */\n      dup6\n        /* \"#utility.yul\":6521:6527   */\n      dup2\n        /* \"#utility.yul\":6518:6533   */\n      gt\n        /* \"#utility.yul\":6515:6637   */\n      iszero\n      tag_135\n      jumpi\n        /* \"#utility.yul\":6548:6627   */\n      tag_136\n      tag_60\n      jump\t// in\n    tag_136:\n        /* \"#utility.yul\":6515:6637   */\n    tag_135:\n        /* \"#utility.yul\":6663:6669   */\n      dup4\n        /* \"#utility.yul\":6646:6866   */\n    tag_137:\n        /* \"#utility.yul\":6680:6686   */\n      dup2\n        /* \"#utility.yul\":6675:6678   */\n      dup2\n        /* \"#utility.yul\":6672:6687   */\n      lt\n        /* \"#utility.yul\":6646:6866   */\n      iszero\n      tag_139\n      jumpi\n        /* \"#utility.yul\":6755:6758   */\n      dup1\n        /* \"#utility.yul\":6784:6821   */\n      tag_140\n        /* \"#utility.yul\":6817:6820   */\n      dup9\n        /* \"#utility.yul\":6805:6815   */\n      dup3\n        /* \"#utility.yul\":6784:6821   */\n      tag_45\n      jump\t// in\n    tag_140:\n        /* \"#utility.yul\":6779:6782   */\n      dup5\n        /* \"#utility.yul\":6772:6822   */\n      mstore\n        /* \"#utility.yul\":6851:6855   */\n      0x20\n        /* \"#utility.yul\":6846:6849   */\n      dup5\n        /* \"#utility.yul\":6842:6856   */\n      add\n        /* \"#utility.yul\":6835:6856   */\n      swap4\n      pop\n        /* \"#utility.yul\":6722:6866   */\n      pop\n        /* \"#utility.yul\":6706:6710   */\n      0x20\n        /* \"#utility.yul\":6701:6704   */\n      dup2\n        /* \"#utility.yul\":6697:6711   */\n      add\n        /* \"#utility.yul\":6690:6711   */\n      swap1\n      pop\n        /* \"#utility.yul\":6646:6866   */\n      jump(tag_137)\n    tag_139:\n        /* \"#utility.yul\":6650:6671   */\n      pop\n        /* \"#utility.yul\":6264:6872   */\n      pop\n      pop\n        /* \"#utility.yul\":6162:6872   */\n      swap4\n      swap3\n      pop\n      pop\n      pop\n      jump\t// out\n        /* \"#utility.yul\":6895:7265   */\n    tag_62:\n        /* \"#utility.yul\":6966:6971   */\n      0x00\n        /* \"#utility.yul\":7015:7018   */\n      dup3\n        /* \"#utility.yul\":7008:7012   */\n      0x1f\n        /* \"#utility.yul\":7000:7006   */\n      dup4\n        /* \"#utility.yul\":6996:7013   */\n      add\n        /* \"#utility.yul\":6992:7019   */\n      slt\n        /* \"#utility.yul\":6982:7104   */\n      tag_142\n      jumpi\n        /* \"#utility.yul\":7023:7102   */\n      tag_143\n      tag_54\n      jump\t// in\n    tag_143:\n        /* \"#utility.yul\":6982:7104   */\n    tag_142:\n        /* \"#utility.yul\":7140:7146   */\n      dup2\n        /* \"#utility.yul\":7127:7147   */\n      calldataload\n        /* \"#utility.yul\":7165:7259   */\n      tag_144\n        /* \"#utility.yul\":7255:7258   */\n      dup5\n        /* \"#utility.yul\":7247:7253   */\n      dup3\n        /* \"#utility.yul\":7240:7244   */\n      0x20\n        /* \"#utility.yul\":7232:7238   */\n      dup7\n        /* \"#utility.yul\":7228:7245   */\n      add\n        /* \"#utility.yul\":7165:7259   */\n      tag_61\n      jump\t// in\n    tag_144:\n        /* \"#utility.yul\":7156:7259   */\n      swap2\n      pop\n        /* \"#utility.yul\":6972:7265   */\n      pop\n        /* \"#utility.yul\":6895:7265   */\n      swap3\n      swap2\n      pop\n      pop\n      jump\t// out\n        /* \"#utility.yul\":7271:8246   */\n    tag_25:\n        /* \"#utility.yul\":7382:7388   */\n      0x00\n        /* \"#utility.yul\":7390:7396   */\n      dup1\n        /* \"#utility.yul\":7398:7404   */\n      0x00\n        /* \"#utility.yul\":7406:7412   */\n      dup1\n        /* \"#utility.yul\":7455:7458   */\n      0x80\n        /* \"#utility.yul\":7443:7452   */\n      dup6\n        /* \"#utility.yul\":7434:7441   */\n      dup8\n        /* \"#utility.yul\":7430:7453   */\n      sub\n        /* \"#utility.yul\":7426:7459   */\n      slt\n        /* \"#utility.yul\":7423:7543   */\n      iszero\n      tag_146\n      jumpi\n        /* \"#utility.yul\":7462:7541   */\n      tag_147\n      tag_36\n      jump\t// in\n    tag_147:\n        /* \"#utility.yul\":7423:7543   */\n    tag_146:\n        /* \"#utility.yul\":7582:7583   */\n      0x00\n        /* \"#utility.yul\":7607:7660   */\n      tag_148\n        /* \"#utility.yul\":7652:7659   */\n      dup8\n        /* \"#utility.yul\":7643:7649   */\n      dup3\n        /* \"#utility.yul\":7632:7641   */\n      dup9\n        /* \"#utility.yul\":7628:7650   */\n      add\n        /* \"#utility.yul\":7607:7660   */\n      tag_40\n      jump\t// in\n    tag_148:\n        /* \"#utility.yul\":7597:7660   */\n      swap5\n      pop\n        /* \"#utility.yul\":7553:7670   */\n      pop\n        /* \"#utility.yul\":7709:7711   */\n      0x20\n        /* \"#utility.yul\":7735:7788   */\n      tag_149\n        /* \"#utility.yul\":7780:7787   */\n      dup8\n        /* \"#utility.yul\":7771:7777   */\n      dup3\n        /* \"#utility.yul\":7760:7769   */\n      dup9\n        /* \"#utility.yul\":7756:7778   */\n      add\n        /* \"#utility.yul\":7735:7788   */\n      tag_40\n      jump\t// in\n    tag_149:\n        /* \"#utility.yul\":7725:7788   */\n      swap4\n      pop\n        /* \"#utility.yul\":7680:7798   */\n      pop\n        /* \"#utility.yul\":7837:7839   */\n      0x40\n        /* \"#utility.yul\":7863:7916   */\n      tag_150\n        /* \"#utility.yul\":7908:7915   */\n      dup8\n        /* \"#utility.yul\":7899:7905   */\n      dup3\n        /* \"#utility.yul\":7888:7897   */\n      dup9\n        /* \"#utility.yul\":7884:7906   */\n      add\n        /* \"#utility.yul\":7863:7916   */\n      tag_45\n      jump\t// in\n    tag_150:\n        /* \"#utility.yul\":7853:7916   */\n      swap3\n      pop\n        /* \"#utility.yul\":7808:7926   */\n      pop\n        /* \"#utility.yul\":7993:7995   */\n      0x60\n        /* \"#utility.yul\":7982:7991   */\n      dup6\n        /* \"#utility.yul\":7978:7996   */\n      add\n        /* \"#utility.yul\":7965:7997   */\n      calldataload\n        /* \"#utility.yul\":8024:8042   */\n      0xffffffffffffffff\n        /* \"#utility.yul\":8016:8022   */\n      dup2\n        /* \"#utility.yul\":8013:8043   */\n      gt\n        /* \"#utility.yul\":8010:8127   */\n      iszero\n      tag_151\n      jumpi\n        /* \"#utility.yul\":8046:8125   */\n      tag_152\n      tag_37\n      jump\t// in\n    tag_152:\n        /* \"#utility.yul\":8010:8127   */\n    tag_151:\n        /* \"#utility.yul\":8151:8229   */\n      tag_153\n        /* \"#utility.yul\":8221:8228   */\n      dup8\n        /* \"#utility.yul\":8212:8218   */\n      dup3\n        /* \"#utility.yul\":8201:8210   */\n      dup9\n        /* \"#utility.yul\":8197:8219   */\n      add\n        /* \"#utility.yul\":8151:8229   */\n      tag_62\n      jump\t// in\n    tag_153:\n        /* \"#utility.yul\":8141:8229   */\n      swap2\n      pop\n        /* \"#utility.yul\":7936:8239   */\n      pop\n        /* \"#utility.yul\":7271:8246   */\n      swap3\n      swap6\n      swap2\n      swap5\n      pop\n      swap3\n      pop\n      jump\t// out\n        /* \"#utility.yul\":8252:8474   */\n    tag_28:\n        /* \"#utility.yul\":8345:8349   */\n      0x00\n        /* \"#utility.yul\":8383:8385   */\n      0x20\n        /* \"#utility.yul\":8372:8381   */\n      dup3\n        /* \"#utility.yul\":8368:8386   */\n      add\n        /* \"#utility.yul\":8360:8386   */\n      swap1\n      pop\n        /* \"#utility.yul\":8396:8467   */\n      tag_155\n        /* \"#utility.yul\":8464:8465   */\n      0x00\n        /* \"#utility.yul\":8453:8462   */\n      dup4\n        /* \"#utility.yul\":8449:8466   */\n      add\n        /* \"#utility.yul\":8440:8446   */\n      dup5\n        /* \"#utility.yul\":8396:8467   */\n      tag_46\n      jump\t// in\n    tag_155:\n        /* \"#utility.yul\":8252:8474   */\n      swap3\n      swap2\n      pop\n      pop\n      jump\t// out\n\n    auxdata: 0xa26469706673582212207dd26d939a6d9b813d4e854bd8565de23f9f95259f9a05ed27593a4f77eac61e64736f6c634300080f0033\n}\n",
				"bytecode": {
					"linkReferences": {},
					"object": "608060405234801561001057600080fd5b50610633806100206000396000f3fe608060405234801561001057600080fd5b506004361061004c5760003560e01c806313ede1a1146100515780634e9c11181461008157806380ee43f5146100b1578063b3d69dac146100e3575b600080fd5b61006b600480360381019061006691906101f3565b610113565b6040516100789190610261565b60405180910390f35b61009b600480360381019061009691906101f3565b610152565b6040516100a89190610261565b60405180910390f35b6100cb60048036038101906100c691906102a8565b610191565b6040516100da939291906103c8565b60405180910390f35b6100fd60048036038101906100f8919061055f565b61019f565b60405161010a91906105e2565b60405180910390f35b6001818154811061012357600080fd5b906000526020600020016000915054906101000a900473ffffffffffffffffffffffffffffffffffffffff1681565b6000818154811061016257600080fd5b906000526020600020016000915054906101000a900473ffffffffffffffffffffffffffffffffffffffff1681565b600080606093509350939050565b6000949350505050565b6000604051905090565b600080fd5b600080fd5b6000819050919050565b6101d0816101bd565b81146101db57600080fd5b50565b6000813590506101ed816101c7565b92915050565b600060208284031215610209576102086101b3565b5b6000610217848285016101de565b91505092915050565b600073ffffffffffffffffffffffffffffffffffffffff82169050919050565b600061024b82610220565b9050919050565b61025b81610240565b82525050565b60006020820190506102766000830184610252565b92915050565b61028581610240565b811461029057600080fd5b50565b6000813590506102a28161027c565b92915050565b6000806000606084860312156102c1576102c06101b3565b5b60006102cf868287016101de565b93505060206102e086828701610293565b92505060406102f186828701610293565b9150509250925092565b610304816101bd565b82525050565b600081519050919050565b600082825260208201905092915050565b6000819050602082019050919050565b61033f81610240565b82525050565b60006103518383610336565b60208301905092915050565b6000602082019050919050565b60006103758261030a565b61037f8185610315565b935061038a83610326565b8060005b838110156103bb5781516103a28882610345565b97506103ad8361035d565b92505060018101905061038e565b5085935050505092915050565b60006060820190506103dd60008301866102fb565b6103ea6020830185610252565b81810360408301526103fc818461036a565b9050949350505050565b600080fd5b6000601f19601f8301169050919050565b7f4e487b7100000000000000000000000000000000000000000000000000000000600052604160045260246000fd5b6104548261040b565b810181811067ffffffffffffffff821117156104735761047261041c565b5b80604052505050565b60006104866101a9565b9050610492828261044b565b919050565b600067ffffffffffffffff8211156104b2576104b161041c565b5b602082029050602081019050919050565b600080fd5b60006104db6104d684610497565b61047c565b905080838252602082019050602084028301858111156104fe576104fd6104c3565b5b835b8181101561052757806105138882610293565b845260208401935050602081019050610500565b5050509392505050565b600082601f83011261054657610545610406565b5b81356105568482602086016104c8565b91505092915050565b60008060008060808587031215610579576105786101b3565b5b6000610587878288016101de565b9450506020610598878288016101de565b93505060406105a987828801610293565b925050606085013567ffffffffffffffff8111156105ca576105c96101b8565b5b6105d687828801610531565b91505092959194509250565b60006020820190506105f760008301846102fb565b9291505056fea26469706673582212207dd26d939a6d9b813d4e854bd8565de23f9f95259f9a05ed27593a4f77eac61e64736f6c634300080f0033",
					"opcodes": "PUSH1 0x80 PUSH1 0x40 MSTORE CALLVALUE DUP1 ISZERO PUSH2 0x10 JUMPI PUSH1 0x0 DUP1 REVERT JUMPDEST POP PUSH2 0x633 DUP1 PUSH2 0x20 PUSH1 0x0 CODECOPY PUSH1 0x0 RETURN INVALID PUSH1 0x80 PUSH1 0x40 MSTORE CALLVALUE DUP1 ISZERO PUSH2 0x10 JUMPI PUSH1 0x0 DUP1 REVERT JUMPDEST POP PUSH1 0x4 CALLDATASIZE LT PUSH2 0x4C JUMPI PUSH1 0x0 CALLDATALOAD PUSH1 0xE0 SHR DUP1 PUSH4 0x13EDE1A1 EQ PUSH2 0x51 JUMPI DUP1 PUSH4 0x4E9C1118 EQ PUSH2 0x81 JUMPI DUP1 PUSH4 0x80EE43F5 EQ PUSH2 0xB1 JUMPI DUP1 PUSH4 0xB3D69DAC EQ PUSH2 0xE3 JUMPI JUMPDEST PUSH1 0x0 DUP1 REVERT JUMPDEST PUSH2 0x6B PUSH1 0x4 DUP1 CALLDATASIZE SUB DUP2 ADD SWAP1 PUSH2 0x66 SWAP2 SWAP1 PUSH2 0x1F3 JUMP JUMPDEST PUSH2 0x113 JUMP JUMPDEST PUSH1 0x40 MLOAD PUSH2 0x78 SWAP2 SWAP1 PUSH2 0x261 JUMP JUMPDEST PUSH1 0x40 MLOAD DUP1 SWAP2 SUB SWAP1 RETURN JUMPDEST PUSH2 0x9B PUSH1 0x4 DUP1 CALLDATASIZE SUB DUP2 ADD SWAP1 PUSH2 0x96 SWAP2 SWAP1 PUSH2 0x1F3 JUMP JUMPDEST PUSH2 0x152 JUMP JUMPDEST PUSH1 0x40 MLOAD PUSH2 0xA8 SWAP2 SWAP1 PUSH2 0x261 JUMP JUMPDEST PUSH1 0x40 MLOAD DUP1 SWAP2 SUB SWAP1 RETURN JUMPDEST PUSH2 0xCB PUSH1 0x4 DUP1 CALLDATASIZE SUB DUP2 ADD SWAP1 PUSH2 0xC6 SWAP2 SWAP1 PUSH2 0x2A8 JUMP JUMPDEST PUSH2 0x191 JUMP JUMPDEST PUSH1 0x40 MLOAD PUSH2 0xDA SWAP4 SWAP3 SWAP2 SWAP1 PUSH2 0x3C8 JUMP JUMPDEST PUSH1 0x40 MLOAD DUP1 SWAP2 SUB SWAP1 RETURN JUMPDEST PUSH2 0xFD PUSH1 0x4 DUP1 CALLDATASIZE SUB DUP2 ADD SWAP1 PUSH2 0xF8 SWAP2 SWAP1 PUSH2 0x55F JUMP JUMPDEST PUSH2 0x19F JUMP JUMPDEST PUSH1 0x40 MLOAD PUSH2 0x10A SWAP2 SWAP1 PUSH2 0x5E2 JUMP JUMPDEST PUSH1 0x40 MLOAD DUP1 SWAP2 SUB SWAP1 RETURN JUMPDEST PUSH1 0x1 DUP2 DUP2 SLOAD DUP2 LT PUSH2 0x123 JUMPI PUSH1 0x0 DUP1 REVERT JUMPDEST SWAP1 PUSH1 0x0 MSTORE PUSH1 0x20 PUSH1 0x0 KECCAK256 ADD PUSH1 0x0 SWAP2 POP SLOAD SWAP1 PUSH2 0x100 EXP SWAP1 DIV PUSH20 0xFFFFFFFFFFFFFFFFFFFFFFFFFFFFFFFFFFFFFFFF AND DUP2 JUMP JUMPDEST PUSH1 0x0 DUP2 DUP2 SLOAD DUP2 LT PUSH2 0x162 JUMPI PUSH1 0x0 DUP1 REVERT JUMPDEST SWAP1 PUSH1 0x0 MSTORE PUSH1 0x20 PUSH1 0x0 KECCAK256 ADD PUSH1 0x0 SWAP2 POP SLOAD SWAP1 PUSH2 0x100 EXP SWAP1 DIV PUSH20 0xFFFFFFFFFFFFFFFFFFFFFFFFFFFFFFFFFFFFFFFF AND DUP2 JUMP JUMPDEST PUSH1 0x0 DUP1 PUSH1 0x60 SWAP4 POP SWAP4 POP SWAP4 SWAP1 POP JUMP JUMPDEST PUSH1 0x0 SWAP5 SWAP4 POP POP POP POP JUMP JUMPDEST PUSH1 0x0 PUSH1 0x40 MLOAD SWAP1 POP SWAP1 JUMP JUMPDEST PUSH1 0x0 DUP1 REVERT JUMPDEST PUSH1 0x0 DUP1 REVERT JUMPDEST PUSH1 0x0 DUP2 SWAP1 POP SWAP2 SWAP1 POP JUMP JUMPDEST PUSH2 0x1D0 DUP2 PUSH2 0x1BD JUMP JUMPDEST DUP2 EQ PUSH2 0x1DB JUMPI PUSH1 0x0 DUP1 REVERT JUMPDEST POP JUMP JUMPDEST PUSH1 0x0 DUP2 CALLDATALOAD SWAP1 POP PUSH2 0x1ED DUP2 PUSH2 0x1C7 JUMP JUMPDEST SWAP3 SWAP2 POP POP JUMP JUMPDEST PUSH1 0x0 PUSH1 0x20 DUP3 DUP5 SUB SLT ISZERO PUSH2 0x209 JUMPI PUSH2 0x208 PUSH2 0x1B3 JUMP JUMPDEST JUMPDEST PUSH1 0x0 PUSH2 0x217 DUP5 DUP3 DUP6 ADD PUSH2 0x1DE JUMP JUMPDEST SWAP2 POP POP SWAP3 SWAP2 POP POP JUMP JUMPDEST PUSH1 0x0 PUSH20 0xFFFFFFFFFFFFFFFFFFFFFFFFFFFFFFFFFFFFFFFF DUP3 AND SWAP1 POP SWAP2 SWAP1 POP JUMP JUMPDEST PUSH1 0x0 PUSH2 0x24B DUP3 PUSH2 0x220 JUMP JUMPDEST SWAP1 POP SWAP2 SWAP1 POP JUMP JUMPDEST PUSH2 0x25B DUP2 PUSH2 0x240 JUMP JUMPDEST DUP3 MSTORE POP POP JUMP JUMPDEST PUSH1 0x0 PUSH1 0x20 DUP3 ADD SWAP1 POP PUSH2 0x276 PUSH1 0x0 DUP4 ADD DUP5 PUSH2 0x252 JUMP JUMPDEST SWAP3 SWAP2 POP POP JUMP JUMPDEST PUSH2 0x285 DUP2 PUSH2 0x240 JUMP JUMPDEST DUP2 EQ PUSH2 0x290 JUMPI PUSH1 0x0 DUP1 REVERT JUMPDEST POP JUMP JUMPDEST PUSH1 0x0 DUP2 CALLDATALOAD SWAP1 POP PUSH2 0x2A2 DUP2 PUSH2 0x27C JUMP JUMPDEST SWAP3 SWAP2 POP POP JUMP JUMPDEST PUSH1 0x0 DUP1 PUSH1 0x0 PUSH1 0x60 DUP5 DUP7 SUB SLT ISZERO PUSH2 0x2C1 JUMPI PUSH2 0x2C0 PUSH2 0x1B3 JUMP JUMPDEST JUMPDEST PUSH1 0x0 PUSH2 0x2CF DUP7 DUP3 DUP8 ADD PUSH2 0x1DE JUMP JUMPDEST SWAP4 POP POP PUSH1 0x20 PUSH2 0x2E0 DUP7 DUP3 DUP8 ADD PUSH2 0x293 JUMP JUMPDEST SWAP3 POP POP PUSH1 0x40 PUSH2 0x2F1 DUP7 DUP3 DUP8 ADD PUSH2 0x293 JUMP JUMPDEST SWAP2 POP POP SWAP3 POP SWAP3 POP SWAP3 JUMP JUMPDEST PUSH2 0x304 DUP2 PUSH2 0x1BD JUMP JUMPDEST DUP3 MSTORE POP POP JUMP JUMPDEST PUSH1 0x0 DUP2 MLOAD SWAP1 POP SWAP2 SWAP1 POP JUMP JUMPDEST PUSH1 0x0 DUP3 DUP3 MSTORE PUSH1 0x20 DUP3 ADD SWAP1 POP SWAP3 SWAP2 POP POP JUMP JUMPDEST PUSH1 0x0 DUP2 SWAP1 POP PUSH1 0x20 DUP3 ADD SWAP1 POP SWAP2 SWAP1 POP JUMP JUMPDEST PUSH2 0x33F DUP2 PUSH2 0x240 JUMP JUMPDEST DUP3 MSTORE POP POP JUMP JUMPDEST PUSH1 0x0 PUSH2 0x351 DUP4 DUP4 PUSH2 0x336 JUMP JUMPDEST PUSH1 0x20 DUP4 ADD SWAP1 POP SWAP3 SWAP2 POP POP JUMP JUMPDEST PUSH1 0x0 PUSH1 0x20 DUP3 ADD SWAP1 POP SWAP2 SWAP1 POP JUMP JUMPDEST PUSH1 0x0 PUSH2 0x375 DUP3 PUSH2 0x30A JUMP JUMPDEST PUSH2 0x37F DUP2 DUP6 PUSH2 0x315 JUMP JUMPDEST SWAP4 POP PUSH2 0x38A DUP4 PUSH2 0x326 JUMP JUMPDEST DUP1 PUSH1 0x0 JUMPDEST DUP4 DUP2 LT ISZERO PUSH2 0x3BB JUMPI DUP2 MLOAD PUSH2 0x3A2 DUP9 DUP3 PUSH2 0x345 JUMP JUMPDEST SWAP8 POP PUSH2 0x3AD DUP4 PUSH2 0x35D JUMP JUMPDEST SWAP3 POP POP PUSH1 0x1 DUP2 ADD SWAP1 POP PUSH2 0x38E JUMP JUMPDEST POP DUP6 SWAP4 POP POP POP POP SWAP3 SWAP2 POP POP JUMP JUMPDEST PUSH1 0x0 PUSH1 0x60 DUP3 ADD SWAP1 POP PUSH2 0x3DD PUSH1 0x0 DUP4 ADD DUP7 PUSH2 0x2FB JUMP JUMPDEST PUSH2 0x3EA PUSH1 0x20 DUP4 ADD DUP6 PUSH2 0x252 JUMP JUMPDEST DUP2 DUP2 SUB PUSH1 0x40 DUP4 ADD MSTORE PUSH2 0x3FC DUP2 DUP5 PUSH2 0x36A JUMP JUMPDEST SWAP1 POP SWAP5 SWAP4 POP POP POP POP JUMP JUMPDEST PUSH1 0x0 DUP1 REVERT JUMPDEST PUSH1 0x0 PUSH1 0x1F NOT PUSH1 0x1F DUP4 ADD AND SWAP1 POP SWAP2 SWAP1 POP JUMP JUMPDEST PUSH32 0x4E487B7100000000000000000000000000000000000000000000000000000000 PUSH1 0x0 MSTORE PUSH1 0x41 PUSH1 0x4 MSTORE PUSH1 0x24 PUSH1 0x0 REVERT JUMPDEST PUSH2 0x454 DUP3 PUSH2 0x40B JUMP JUMPDEST DUP2 ADD DUP2 DUP2 LT PUSH8 0xFFFFFFFFFFFFFFFF DUP3 GT OR ISZERO PUSH2 0x473 JUMPI PUSH2 0x472 PUSH2 0x41C JUMP JUMPDEST JUMPDEST DUP1 PUSH1 0x40 MSTORE POP POP POP JUMP JUMPDEST PUSH1 0x0 PUSH2 0x486 PUSH2 0x1A9 JUMP JUMPDEST SWAP1 POP PUSH2 0x492 DUP3 DUP3 PUSH2 0x44B JUMP JUMPDEST SWAP2 SWAP1 POP JUMP JUMPDEST PUSH1 0x0 PUSH8 0xFFFFFFFFFFFFFFFF DUP3 GT ISZERO PUSH2 0x4B2 JUMPI PUSH2 0x4B1 PUSH2 0x41C JUMP JUMPDEST JUMPDEST PUSH1 0x20 DUP3 MUL SWAP1 POP PUSH1 0x20 DUP2 ADD SWAP1 POP SWAP2 SWAP1 POP JUMP JUMPDEST PUSH1 0x0 DUP1 REVERT JUMPDEST PUSH1 0x0 PUSH2 0x4DB PUSH2 0x4D6 DUP5 PUSH2 0x497 JUMP JUMPDEST PUSH2 0x47C JUMP JUMPDEST SWAP1 POP DUP1 DUP4 DUP3 MSTORE PUSH1 0x20 DUP3 ADD SWAP1 POP PUSH1 0x20 DUP5 MUL DUP4 ADD DUP6 DUP2 GT ISZERO PUSH2 0x4FE JUMPI PUSH2 0x4FD PUSH2 0x4C3 JUMP JUMPDEST JUMPDEST DUP4 JUMPDEST DUP2 DUP2 LT ISZERO PUSH2 0x527 JUMPI DUP1 PUSH2 0x513 DUP9 DUP3 PUSH2 0x293 JUMP JUMPDEST DUP5 MSTORE PUSH1 0x20 DUP5 ADD SWAP4 POP POP PUSH1 0x20 DUP2 ADD SWAP1 POP PUSH2 0x500 JUMP JUMPDEST POP POP POP SWAP4 SWAP3 POP POP POP JUMP JUMPDEST PUSH1 0x0 DUP3 PUSH1 0x1F DUP4 ADD SLT PUSH2 0x546 JUMPI PUSH2 0x545 PUSH2 0x406 JUMP JUMPDEST JUMPDEST DUP2 CALLDATALOAD PUSH2 0x556 DUP5 DUP3 PUSH1 0x20 DUP7 ADD PUSH2 0x4C8 JUMP JUMPDEST SWAP2 POP POP SWAP3 SWAP2 POP POP JUMP JUMPDEST PUSH1 0x0 DUP1 PUSH1 0x0 DUP1 PUSH1 0x80 DUP6 DUP8 SUB SLT ISZERO PUSH2 0x579 JUMPI PUSH2 0x578 PUSH2 0x1B3 JUMP JUMPDEST JUMPDEST PUSH1 0x0 PUSH2 0x587 DUP8 DUP3 DUP9 ADD PUSH2 0x1DE JUMP JUMPDEST SWAP5 POP POP PUSH1 0x20 PUSH2 0x598 DUP8 DUP3 DUP9 ADD PUSH2 0x1DE JUMP JUMPDEST SWAP4 POP POP PUSH1 0x40 PUSH2 0x5A9 DUP8 DUP3 DUP9 ADD PUSH2 0x293 JUMP JUMPDEST SWAP3 POP POP PUSH1 0x60 DUP6 ADD CALLDATALOAD PUSH8 0xFFFFFFFFFFFFFFFF DUP2 GT ISZERO PUSH2 0x5CA JUMPI PUSH2 0x5C9 PUSH2 0x1B8 JUMP JUMPDEST JUMPDEST PUSH2 0x5D6 DUP8 DUP3 DUP9 ADD PUSH2 0x531 JUMP JUMPDEST SWAP2 POP POP SWAP3 SWAP6 SWAP2 SWAP5 POP SWAP3 POP JUMP JUMPDEST PUSH1 0x0 PUSH1 0x20 DUP3 ADD SWAP1 POP PUSH2 0x5F7 PUSH1 0x0 DUP4 ADD DUP5 PUSH2 0x2FB JUMP JUMPDEST SWAP3 SWAP2 POP POP JUMP INVALID LOG2 PUSH5 0x6970667358 0x22 SLT KECCAK256 PUSH30 0xD26D939A6D9B813D4E854BD8565DE23F9F95259F9A05ED27593A4F77EAC6 0x1E PUSH5 0x736F6C6343 STOP ADDMOD 0xF STOP CALLER "
				},
				"gasEstimates": {
					"creation": {
						"codeDepositCost": "317400",
						"executionCost": "355",
						"totalCost": "317755"
					},
					"external": {
						"connectors(uint256)": "4934",
						"quote(uint256,address,address)": "infinite",
						"routers(uint256)": "4956",
						"swap(uint256,uint256,address,address[])": "infinite"
					}
				},
				"methodIdentifiers": {
					"connectors(uint256)": "13ede1a1",
					"quote(uint256,address,address)": "80ee43f5",
					"routers(uint256)": "4e9c1118",
					"swap(uint256,uint256,address,address[])": "b3d69dac"
				}
			},
			"storageLayout": {
				"storage": [
					{
						"astId": 4,
						"contract": "crossSwap.sol:crossSwap",
						"label": "routers",
						"offset": 0,
						"slot": "0",
						"type": "t_array(t_address)dyn_storage"
					},
					{
						"astId": 7,
						"contract": "crossSwap.sol:crossSwap",
						"label": "connectors",
						"offset": 0,
						"slot": "1",
						"type": "t_array(t_address)dyn_storage"
					}
				],
				"types": {
					"t_address": {
						"encoding": "inplace",
						"label": "address",
						"numberOfBytes": "20"
					},
					"t_array(t_address)dyn_storage": {
						"base": "t_address",
						"encoding": "dynamic_array",
						"label": "address[]",
						"numberOfBytes": "32"
					}
				}
			},
			"userdoc": {
				"kind": "user",
				"methods": {},
				"version": 1
			}
		}
	}
}