{
	"CrossSwap.sol": {
		"crossSwap": {
			"abi": [
				{
					"inputs": [
						{
							"internalType": "uint256",
							"name": "",
							"type": "uint256"
						}
					],
					"name": "connectors",
					"outputs": [
						{
							"internalType": "address",
							"name": "",
							"type": "address"
						}
					],
					"stateMutability": "view",
					"type": "function"
				},
				{
					"inputs": [],
					"name": "getConnectors",
					"outputs": [
						{
							"internalType": "address[]",
							"name": "",
							"type": "address[]"
						}
					],
					"stateMutability": "view",
					"type": "function"
				},
				{
					"inputs": [],
					"name": "getLengthConnector",
					"outputs": [
						{
							"internalType": "uint256",
							"name": "",
							"type": "uint256"
						}
					],
					"stateMutability": "view",
					"type": "function"
				},
				{
					"inputs": [],
					"name": "getLengthRouter",
					"outputs": [
						{
							"internalType": "uint256",
							"name": "",
							"type": "uint256"
						}
					],
					"stateMutability": "view",
					"type": "function"
				},
				{
					"inputs": [],
					"name": "getRouters",
					"outputs": [
						{
							"internalType": "address[]",
							"name": "",
							"type": "address[]"
						}
					],
					"stateMutability": "view",
					"type": "function"
				},
				{
					"inputs": [],
					"name": "popConnector",
					"outputs": [],
					"stateMutability": "nonpayable",
					"type": "function"
				},
				{
					"inputs": [],
					"name": "popRouter",
					"outputs": [],
					"stateMutability": "nonpayable",
					"type": "function"
				},
				{
					"inputs": [
						{
							"internalType": "address",
							"name": "connector",
							"type": "address"
						}
					],
					"name": "pushConnector",
					"outputs": [],
					"stateMutability": "nonpayable",
					"type": "function"
				},
				{
					"inputs": [
						{
							"internalType": "address",
							"name": "router",
							"type": "address"
						}
					],
					"name": "pushRouter",
					"outputs": [],
					"stateMutability": "nonpayable",
					"type": "function"
				},
				{
					"inputs": [
						{
							"internalType": "uint256",
							"name": "amountIn",
							"type": "uint256"
						},
						{
							"internalType": "address",
							"name": "tokenIn",
							"type": "address"
						},
						{
							"internalType": "address",
							"name": "tokenOut",
							"type": "address"
						}
					],
					"name": "quote",
					"outputs": [
						{
							"internalType": "uint256",
							"name": "amountOut",
							"type": "uint256"
						},
						{
							"internalType": "address",
							"name": "router",
							"type": "address"
						},
						{
							"internalType": "address[]",
							"name": "path",
							"type": "address[]"
						}
					],
					"stateMutability": "view",
					"type": "function"
				},
				{
					"inputs": [
						{
							"internalType": "uint256",
							"name": "index",
							"type": "uint256"
						}
					],
					"name": "removeConnector",
					"outputs": [],
					"stateMutability": "nonpayable",
					"type": "function"
				},
				{
					"inputs": [
						{
							"internalType": "uint256",
							"name": "index",
							"type": "uint256"
						}
					],
					"name": "removeRouter",
					"outputs": [],
					"stateMutability": "nonpayable",
					"type": "function"
				},
				{
					"inputs": [
						{
							"internalType": "uint256",
							"name": "",
							"type": "uint256"
						}
					],
					"name": "routers",
					"outputs": [
						{
							"internalType": "address",
							"name": "",
							"type": "address"
						}
					],
					"stateMutability": "view",
					"type": "function"
				},
				{
					"inputs": [
						{
							"internalType": "uint256",
							"name": "amountIn",
							"type": "uint256"
						},
						{
							"internalType": "uint256",
							"name": "amountOutMin",
							"type": "uint256"
						},
						{
							"internalType": "address",
							"name": "router",
							"type": "address"
						},
						{
							"internalType": "address[]",
							"name": "path",
							"type": "address[]"
						}
					],
					"name": "swap",
					"outputs": [
						{
							"internalType": "uint256",
							"name": "amountOut",
							"type": "uint256"
						}
					],
					"stateMutability": "nonpayable",
					"type": "function"
				}
			],
			"devdoc": {
				"kind": "dev",
				"methods": {},
				"version": 1
			},
			"evm": {
				"assembly": "    /* \"CrossSwap.sol\":58:2997  contract crossSwap {... */\n  mstore(0x40, 0x80)\n  callvalue\n  dup1\n  iszero\n  tag_1\n  jumpi\n  0x00\n  dup1\n  revert\ntag_1:\n  pop\n  dataSize(sub_0)\n  dup1\n  dataOffset(sub_0)\n  0x00\n  codecopy\n  0x00\n  return\nstop\n\nsub_0: assembly {\n        /* \"CrossSwap.sol\":58:2997  contract crossSwap {... */\n      mstore(0x40, 0x80)\n      callvalue\n      dup1\n      iszero\n      tag_1\n      jumpi\n      0x00\n      dup1\n      revert\n    tag_1:\n      pop\n      jumpi(tag_2, lt(calldatasize, 0x04))\n      shr(0xe0, calldataload(0x00))\n      dup1\n      0x9d964cfe\n      gt\n      tag_17\n      jumpi\n      dup1\n      0xeaaabef4\n      gt\n      tag_18\n      jumpi\n      dup1\n      0xeaaabef4\n      eq\n      tag_13\n      jumpi\n      dup1\n      0xec60dbe9\n      eq\n      tag_14\n      jumpi\n      dup1\n      0xf88c31ce\n      eq\n      tag_15\n      jumpi\n      dup1\n      0xfdbe1ec3\n      eq\n      tag_16\n      jumpi\n      jump(tag_2)\n    tag_18:\n      dup1\n      0x9d964cfe\n      eq\n      tag_10\n      jumpi\n      dup1\n      0xb3d69dac\n      eq\n      tag_11\n      jumpi\n      dup1\n      0xc74eaa11\n      eq\n      tag_12\n      jumpi\n      jump(tag_2)\n    tag_17:\n      dup1\n      0x72882732\n      gt\n      tag_19\n      jumpi\n      dup1\n      0x72882732\n      eq\n      tag_6\n      jumpi\n      dup1\n      0x80ee43f5\n      eq\n      tag_7\n      jumpi\n      dup1\n      0x8279160c\n      eq\n      tag_8\n      jumpi\n      dup1\n      0x931f2243\n      eq\n      tag_9\n      jumpi\n      jump(tag_2)\n    tag_19:\n      dup1\n      0x13ede1a1\n      eq\n      tag_3\n      jumpi\n      dup1\n      0x18ed311e\n      eq\n      tag_4\n      jumpi\n      dup1\n      0x4e9c1118\n      eq\n      tag_5\n      jumpi\n    tag_2:\n      0x00\n      dup1\n      revert\n        /* \"CrossSwap.sol\":113:140  address[] public connectors */\n    tag_3:\n      tag_20\n      0x04\n      dup1\n      calldatasize\n      sub\n      dup2\n      add\n      swap1\n      tag_21\n      swap2\n      swap1\n      tag_22\n      jump\t// in\n    tag_21:\n      tag_23\n      jump\t// in\n    tag_20:\n      mload(0x40)\n      tag_24\n      swap2\n      swap1\n      tag_25\n      jump\t// in\n    tag_24:\n      mload(0x40)\n      dup1\n      swap2\n      sub\n      swap1\n      return\n        /* \"CrossSwap.sol\":1420:1646  function removeConnector(uint index) public {... */\n    tag_4:\n      tag_26\n      0x04\n      dup1\n      calldatasize\n      sub\n      dup2\n      add\n      swap1\n      tag_27\n      swap2\n      swap1\n      tag_22\n      jump\t// in\n    tag_27:\n      tag_28\n      jump\t// in\n    tag_26:\n      stop\n        /* \"CrossSwap.sol\":83:107  address[] public routers */\n    tag_5:\n      tag_29\n      0x04\n      dup1\n      calldatasize\n      sub\n      dup2\n      add\n      swap1\n      tag_30\n      swap2\n      swap1\n      tag_22\n      jump\t// in\n    tag_30:\n      tag_31\n      jump\t// in\n    tag_29:\n      mload(0x40)\n      tag_32\n      swap2\n      swap1\n      tag_25\n      jump\t// in\n    tag_32:\n      mload(0x40)\n      dup1\n      swap2\n      sub\n      swap1\n      return\n        /* \"CrossSwap.sol\":1194:1414  function removeRouter(uint index) public {... */\n    tag_6:\n      tag_33\n      0x04\n      dup1\n      calldatasize\n      sub\n      dup2\n      add\n      swap1\n      tag_34\n      swap2\n      swap1\n      tag_22\n      jump\t// in\n    tag_34:\n      tag_35\n      jump\t// in\n    tag_33:\n      stop\n        /* \"CrossSwap.sol\":2304:2500  function quote(... */\n    tag_7:\n      tag_36\n      0x04\n      dup1\n      calldatasize\n      sub\n      dup2\n      add\n      swap1\n      tag_37\n      swap2\n      swap1\n      tag_38\n      jump\t// in\n    tag_37:\n      tag_39\n      jump\t// in\n    tag_36:\n      mload(0x40)\n      tag_40\n      swap4\n      swap3\n      swap2\n      swap1\n      tag_41\n      jump\t// in\n    tag_40:\n      mload(0x40)\n      dup1\n      swap2\n      sub\n      swap1\n      return\n        /* \"CrossSwap.sol\":733:891  function popConnector() public {... */\n    tag_8:\n      tag_42\n      tag_43\n      jump\t// in\n    tag_42:\n      stop\n        /* \"CrossSwap.sol\":951:1043  function getLengthRouter() public view returns (uint) {... */\n    tag_9:\n      tag_44\n      tag_45\n      jump\t// in\n    tag_44:\n      mload(0x40)\n      tag_46\n      swap2\n      swap1\n      tag_47\n      jump\t// in\n    tag_46:\n      mload(0x40)\n      dup1\n      swap2\n      sub\n      swap1\n      return\n        /* \"CrossSwap.sol\":203:363  function pushRouter(address router) public {... */\n    tag_10:\n      tag_48\n      0x04\n      dup1\n      calldatasize\n      sub\n      dup2\n      add\n      swap1\n      tag_49\n      swap2\n      swap1\n      tag_50\n      jump\t// in\n    tag_49:\n      tag_51\n      jump\t// in\n    tag_48:\n      stop\n        /* \"CrossSwap.sol\":2813:2995  function swap(... */\n    tag_11:\n      tag_52\n      0x04\n      dup1\n      calldatasize\n      sub\n      dup2\n      add\n      swap1\n      tag_53\n      swap2\n      swap1\n      tag_54\n      jump\t// in\n    tag_53:\n      tag_55\n      jump\t// in\n    tag_52:\n      mload(0x40)\n      tag_56\n      swap2\n      swap1\n      tag_47\n      jump\t// in\n    tag_56:\n      mload(0x40)\n      dup1\n      swap2\n      sub\n      swap1\n      return\n        /* \"CrossSwap.sol\":1818:1916  function getConnectors() public view returns (address[] memory) {... */\n    tag_12:\n      tag_57\n      tag_58\n      jump\t// in\n    tag_57:\n      mload(0x40)\n      tag_59\n      swap2\n      swap1\n      tag_60\n      jump\t// in\n    tag_59:\n      mload(0x40)\n      dup1\n      swap2\n      sub\n      swap1\n      return\n        /* \"CrossSwap.sol\":575:727  function popRouter() public {... */\n    tag_13:\n      tag_61\n      tag_62\n      jump\t// in\n    tag_61:\n      stop\n        /* \"CrossSwap.sol\":369:541  function pushConnector(address connector) public {... */\n    tag_14:\n      tag_63\n      0x04\n      dup1\n      calldatasize\n      sub\n      dup2\n      add\n      swap1\n      tag_64\n      swap2\n      swap1\n      tag_50\n      jump\t// in\n    tag_64:\n      tag_65\n      jump\t// in\n    tag_63:\n      stop\n        /* \"CrossSwap.sol\":1720:1812  function getRouters() public view returns (address[] memory) {... */\n    tag_15:\n      tag_66\n      tag_67\n      jump\t// in\n    tag_66:\n      mload(0x40)\n      tag_68\n      swap2\n      swap1\n      tag_60\n      jump\t// in\n    tag_68:\n      mload(0x40)\n      dup1\n      swap2\n      sub\n      swap1\n      return\n        /* \"CrossSwap.sol\":1049:1147  function getLengthConnector() public view returns (uint) {... */\n    tag_16:\n      tag_69\n      tag_70\n      jump\t// in\n    tag_69:\n      mload(0x40)\n      tag_71\n      swap2\n      swap1\n      tag_47\n      jump\t// in\n    tag_71:\n      mload(0x40)\n      dup1\n      swap2\n      sub\n      swap1\n      return\n        /* \"CrossSwap.sol\":113:140  address[] public connectors */\n    tag_23:\n      0x01\n      dup2\n      dup2\n      sload\n      dup2\n      lt\n      tag_72\n      jumpi\n      0x00\n      dup1\n      revert\n    tag_72:\n      swap1\n      0x00\n      mstore\n      keccak256(0x00, 0x20)\n      add\n      0x00\n      swap2\n      pop\n      sload\n      swap1\n      0x0100\n      exp\n      swap1\n      div\n      0xffffffffffffffffffffffffffffffffffffffff\n      and\n      dup2\n      jump\t// out\n        /* \"CrossSwap.sol\":1420:1646  function removeConnector(uint index) public {... */\n    tag_28:\n        /* \"CrossSwap.sol\":1622:1632  connectors */\n      0x01\n        /* \"CrossSwap.sol\":1633:1638  index */\n      dup2\n        /* \"CrossSwap.sol\":1622:1639  connectors[index] */\n      dup2\n      sload\n      dup2\n      lt\n      tag_75\n      jumpi\n      tag_76\n      tag_77\n      jump\t// in\n    tag_76:\n    tag_75:\n      swap1\n      0x00\n      mstore\n      keccak256(0x00, 0x20)\n      add\n      0x00\n        /* \"CrossSwap.sol\":1615:1639  delete connectors[index] */\n      0x0100\n      exp\n      dup2\n      sload\n      swap1\n      0xffffffffffffffffffffffffffffffffffffffff\n      mul\n      not\n      and\n      swap1\n      sstore\n        /* \"CrossSwap.sol\":1420:1646  function removeConnector(uint index) public {... */\n      pop\n      jump\t// out\n        /* \"CrossSwap.sol\":83:107  address[] public routers */\n    tag_31:\n      0x00\n      dup2\n      dup2\n      sload\n      dup2\n      lt\n      tag_79\n      jumpi\n      0x00\n      dup1\n      revert\n    tag_79:\n      swap1\n      0x00\n      mstore\n      keccak256(0x00, 0x20)\n      add\n      0x00\n      swap2\n      pop\n      sload\n      swap1\n      0x0100\n      exp\n      swap1\n      div\n      0xffffffffffffffffffffffffffffffffffffffff\n      and\n      dup2\n      jump\t// out\n        /* \"CrossSwap.sol\":1194:1414  function removeRouter(uint index) public {... */\n    tag_35:\n        /* \"CrossSwap.sol\":1393:1400  routers */\n      0x00\n        /* \"CrossSwap.sol\":1401:1406  index */\n      dup2\n        /* \"CrossSwap.sol\":1393:1407  routers[index] */\n      dup2\n      sload\n      dup2\n      lt\n      tag_82\n      jumpi\n      tag_83\n      tag_77\n      jump\t// in\n    tag_83:\n    tag_82:\n      swap1\n      0x00\n      mstore\n      keccak256(0x00, 0x20)\n      add\n      0x00\n        /* \"CrossSwap.sol\":1386:1407  delete routers[index] */\n      0x0100\n      exp\n      dup2\n      sload\n      swap1\n      0xffffffffffffffffffffffffffffffffffffffff\n      mul\n      not\n      and\n      swap1\n      sstore\n        /* \"CrossSwap.sol\":1194:1414  function removeRouter(uint index) public {... */\n      pop\n      jump\t// out\n        /* \"CrossSwap.sol\":2304:2500  function quote(... */\n    tag_39:\n        /* \"CrossSwap.sol\":2422:2436  uint amountOut */\n      0x00\n        /* \"CrossSwap.sol\":2438:2452  address router */\n      dup1\n        /* \"CrossSwap.sol\":2454:2475  address[] memory path */\n      0x60\n        /* \"CrossSwap.sol\":2304:2500  function quote(... */\n      swap4\n      pop\n      swap4\n      pop\n      swap4\n      swap1\n      pop\n      jump\t// out\n        /* \"CrossSwap.sol\":733:891  function popConnector() public {... */\n    tag_43:\n        /* \"CrossSwap.sol\":868:878  connectors */\n      0x01\n        /* \"CrossSwap.sol\":868:884  connectors.pop() */\n      dup1\n      sload\n      dup1\n      tag_87\n      jumpi\n      tag_88\n      tag_89\n      jump\t// in\n    tag_88:\n    tag_87:\n      0x01\n      swap1\n      sub\n      dup2\n      dup2\n      swap1\n      0x00\n      mstore\n      keccak256(0x00, 0x20)\n      add\n      exp(0x0100, 0x00)\n      dup2\n      sload\n      swap1\n      0xffffffffffffffffffffffffffffffffffffffff\n      mul\n      not\n      and\n      swap1\n      sstore\n      swap1\n      sstore\n        /* \"CrossSwap.sol\":733:891  function popConnector() public {... */\n      jump\t// out\n        /* \"CrossSwap.sol\":951:1043  function getLengthRouter() public view returns (uint) {... */\n    tag_45:\n        /* \"CrossSwap.sol\":999:1003  uint */\n      0x00\n        /* \"CrossSwap.sol\":1022:1029  routers */\n      dup1\n        /* \"CrossSwap.sol\":1022:1036  routers.length */\n      dup1\n      sload\n      swap1\n      pop\n        /* \"CrossSwap.sol\":1015:1036  return routers.length */\n      swap1\n      pop\n        /* \"CrossSwap.sol\":951:1043  function getLengthRouter() public view returns (uint) {... */\n      swap1\n      jump\t// out\n        /* \"CrossSwap.sol\":203:363  function pushRouter(address router) public {... */\n    tag_51:\n        /* \"CrossSwap.sol\":336:343  routers */\n      0x00\n        /* \"CrossSwap.sol\":349:355  router */\n      dup2\n        /* \"CrossSwap.sol\":336:356  routers.push(router) */\n      swap1\n      dup1\n      0x01\n      dup2\n      sload\n      add\n      dup1\n      dup3\n      sstore\n      dup1\n      swap2\n      pop\n      pop\n      0x01\n      swap1\n      sub\n      swap1\n      0x00\n      mstore\n      keccak256(0x00, 0x20)\n      add\n      0x00\n      swap1\n      swap2\n      swap1\n      swap2\n      swap1\n      swap2\n      0x0100\n      exp\n      dup2\n      sload\n      dup2\n      0xffffffffffffffffffffffffffffffffffffffff\n      mul\n      not\n      and\n      swap1\n      dup4\n      0xffffffffffffffffffffffffffffffffffffffff\n      and\n      mul\n      or\n      swap1\n      sstore\n      pop\n        /* \"CrossSwap.sol\":203:363  function pushRouter(address router) public {... */\n      pop\n      jump\t// out\n        /* \"CrossSwap.sol\":2813:2995  function swap(... */\n    tag_55:\n        /* \"CrossSwap.sol\":2956:2970  uint amountOut */\n      0x00\n        /* \"CrossSwap.sol\":2813:2995  function swap(... */\n      swap5\n      swap4\n      pop\n      pop\n      pop\n      pop\n      jump\t// out\n        /* \"CrossSwap.sol\":1818:1916  function getConnectors() public view returns (address[] memory) {... */\n    tag_58:\n        /* \"CrossSwap.sol\":1864:1880  address[] memory */\n      0x60\n        /* \"CrossSwap.sol\":1899:1909  connectors */\n      0x01\n        /* \"CrossSwap.sol\":1892:1909  return connectors */\n      dup1\n      sload\n      dup1\n      0x20\n      mul\n      0x20\n      add\n      mload(0x40)\n      swap1\n      dup2\n      add\n      0x40\n      mstore\n      dup1\n      swap3\n      swap2\n      swap1\n      dup2\n      dup2\n      mstore\n      0x20\n      add\n      dup3\n      dup1\n      sload\n      dup1\n      iszero\n      tag_96\n      jumpi\n      0x20\n      mul\n      dup3\n      add\n      swap2\n      swap1\n      0x00\n      mstore\n      keccak256(0x00, 0x20)\n      swap1\n    tag_97:\n      dup2\n      0x00\n      swap1\n      sload\n      swap1\n      0x0100\n      exp\n      swap1\n      div\n      0xffffffffffffffffffffffffffffffffffffffff\n      and\n      0xffffffffffffffffffffffffffffffffffffffff\n      and\n      dup2\n      mstore\n      0x20\n      add\n      swap1\n      0x01\n      add\n      swap1\n      dup1\n      dup4\n      gt\n      tag_97\n      jumpi\n    tag_96:\n      pop\n      pop\n      pop\n      pop\n      pop\n      swap1\n      pop\n        /* \"CrossSwap.sol\":1818:1916  function getConnectors() public view returns (address[] memory) {... */\n      swap1\n      jump\t// out\n        /* \"CrossSwap.sol\":575:727  function popRouter() public {... */\n    tag_62:\n        /* \"CrossSwap.sol\":707:714  routers */\n      0x00\n        /* \"CrossSwap.sol\":707:720  routers.pop() */\n      dup1\n      sload\n      dup1\n      tag_99\n      jumpi\n      tag_100\n      tag_89\n      jump\t// in\n    tag_100:\n    tag_99:\n      0x01\n      swap1\n      sub\n      dup2\n      dup2\n      swap1\n      0x00\n      mstore\n      keccak256(0x00, 0x20)\n      add\n      exp(0x0100, 0x00)\n      dup2\n      sload\n      swap1\n      0xffffffffffffffffffffffffffffffffffffffff\n      mul\n      not\n      and\n      swap1\n      sstore\n      swap1\n      sstore\n        /* \"CrossSwap.sol\":575:727  function popRouter() public {... */\n      jump\t// out\n        /* \"CrossSwap.sol\":369:541  function pushConnector(address connector) public {... */\n    tag_65:\n        /* \"CrossSwap.sol\":508:518  connectors */\n      0x01\n        /* \"CrossSwap.sol\":524:533  connector */\n      dup2\n        /* \"CrossSwap.sol\":508:534  connectors.push(connector) */\n      swap1\n      dup1\n      0x01\n      dup2\n      sload\n      add\n      dup1\n      dup3\n      sstore\n      dup1\n      swap2\n      pop\n      pop\n      0x01\n      swap1\n      sub\n      swap1\n      0x00\n      mstore\n      keccak256(0x00, 0x20)\n      add\n      0x00\n      swap1\n      swap2\n      swap1\n      swap2\n      swap1\n      swap2\n      0x0100\n      exp\n      dup2\n      sload\n      dup2\n      0xffffffffffffffffffffffffffffffffffffffff\n      mul\n      not\n      and\n      swap1\n      dup4\n      0xffffffffffffffffffffffffffffffffffffffff\n      and\n      mul\n      or\n      swap1\n      sstore\n      pop\n        /* \"CrossSwap.sol\":369:541  function pushConnector(address connector) public {... */\n      pop\n      jump\t// out\n        /* \"CrossSwap.sol\":1720:1812  function getRouters() public view returns (address[] memory) {... */\n    tag_67:\n        /* \"CrossSwap.sol\":1763:1779  address[] memory */\n      0x60\n        /* \"CrossSwap.sol\":1798:1805  routers */\n      0x00\n        /* \"CrossSwap.sol\":1791:1805  return routers */\n      dup1\n      sload\n      dup1\n      0x20\n      mul\n      0x20\n      add\n      mload(0x40)\n      swap1\n      dup2\n      add\n      0x40\n      mstore\n      dup1\n      swap3\n      swap2\n      swap1\n      dup2\n      dup2\n      mstore\n      0x20\n      add\n      dup3\n      dup1\n      sload\n      dup1\n      iszero\n      tag_105\n      jumpi\n      0x20\n      mul\n      dup3\n      add\n      swap2\n      swap1\n      0x00\n      mstore\n      keccak256(0x00, 0x20)\n      swap1\n    tag_106:\n      dup2\n      0x00\n      swap1\n      sload\n      swap1\n      0x0100\n      exp\n      swap1\n      div\n      0xffffffffffffffffffffffffffffffffffffffff\n      and\n      0xffffffffffffffffffffffffffffffffffffffff\n      and\n      dup2\n      mstore\n      0x20\n      add\n      swap1\n      0x01\n      add\n      swap1\n      dup1\n      dup4\n      gt\n      tag_106\n      jumpi\n    tag_105:\n      pop\n      pop\n      pop\n      pop\n      pop\n      swap1\n      pop\n        /* \"CrossSwap.sol\":1720:1812  function getRouters() public view returns (address[] memory) {... */\n      swap1\n      jump\t// out\n        /* \"CrossSwap.sol\":1049:1147  function getLengthConnector() public view returns (uint) {... */\n    tag_70:\n        /* \"CrossSwap.sol\":1100:1104  uint */\n      0x00\n        /* \"CrossSwap.sol\":1123:1133  connectors */\n      0x01\n        /* \"CrossSwap.sol\":1123:1140  connectors.length */\n      dup1\n      sload\n      swap1\n      pop\n        /* \"CrossSwap.sol\":1116:1140  return connectors.length */\n      swap1\n      pop\n        /* \"CrossSwap.sol\":1049:1147  function getLengthConnector() public view returns (uint) {... */\n      swap1\n      jump\t// out\n        /* \"#utility.yul\":7:82   */\n    tag_108:\n        /* \"#utility.yul\":40:46   */\n      0x00\n        /* \"#utility.yul\":73:75   */\n      0x40\n        /* \"#utility.yul\":67:76   */\n      mload\n        /* \"#utility.yul\":57:76   */\n      swap1\n      pop\n        /* \"#utility.yul\":7:82   */\n      swap1\n      jump\t// out\n        /* \"#utility.yul\":88:205   */\n    tag_109:\n        /* \"#utility.yul\":197:198   */\n      0x00\n        /* \"#utility.yul\":194:195   */\n      dup1\n        /* \"#utility.yul\":187:199   */\n      revert\n        /* \"#utility.yul\":211:328   */\n    tag_110:\n        /* \"#utility.yul\":320:321   */\n      0x00\n        /* \"#utility.yul\":317:318   */\n      dup1\n        /* \"#utility.yul\":310:322   */\n      revert\n        /* \"#utility.yul\":334:411   */\n    tag_111:\n        /* \"#utility.yul\":371:378   */\n      0x00\n        /* \"#utility.yul\":400:405   */\n      dup2\n        /* \"#utility.yul\":389:405   */\n      swap1\n      pop\n        /* \"#utility.yul\":334:411   */\n      swap2\n      swap1\n      pop\n      jump\t// out\n        /* \"#utility.yul\":417:539   */\n    tag_112:\n        /* \"#utility.yul\":490:514   */\n      tag_142\n        /* \"#utility.yul\":508:513   */\n      dup2\n        /* \"#utility.yul\":490:514   */\n      tag_111\n      jump\t// in\n    tag_142:\n        /* \"#utility.yul\":483:488   */\n      dup2\n        /* \"#utility.yul\":480:515   */\n      eq\n        /* \"#utility.yul\":470:533   */\n      tag_143\n      jumpi\n        /* \"#utility.yul\":529:530   */\n      0x00\n        /* \"#utility.yul\":526:527   */\n      dup1\n        /* \"#utility.yul\":519:531   */\n      revert\n        /* \"#utility.yul\":470:533   */\n    tag_143:\n        /* \"#utility.yul\":417:539   */\n      pop\n      jump\t// out\n        /* \"#utility.yul\":545:684   */\n    tag_113:\n        /* \"#utility.yul\":591:596   */\n      0x00\n        /* \"#utility.yul\":629:635   */\n      dup2\n        /* \"#utility.yul\":616:636   */\n      calldataload\n        /* \"#utility.yul\":607:636   */\n      swap1\n      pop\n        /* \"#utility.yul\":645:678   */\n      tag_145\n        /* \"#utility.yul\":672:677   */\n      dup2\n        /* \"#utility.yul\":645:678   */\n      tag_112\n      jump\t// in\n    tag_145:\n        /* \"#utility.yul\":545:684   */\n      swap3\n      swap2\n      pop\n      pop\n      jump\t// out\n        /* \"#utility.yul\":690:1019   */\n    tag_22:\n        /* \"#utility.yul\":749:755   */\n      0x00\n        /* \"#utility.yul\":798:800   */\n      0x20\n        /* \"#utility.yul\":786:795   */\n      dup3\n        /* \"#utility.yul\":777:784   */\n      dup5\n        /* \"#utility.yul\":773:796   */\n      sub\n        /* \"#utility.yul\":769:801   */\n      slt\n        /* \"#utility.yul\":766:885   */\n      iszero\n      tag_147\n      jumpi\n        /* \"#utility.yul\":804:883   */\n      tag_148\n      tag_109\n      jump\t// in\n    tag_148:\n        /* \"#utility.yul\":766:885   */\n    tag_147:\n        /* \"#utility.yul\":924:925   */\n      0x00\n        /* \"#utility.yul\":949:1002   */\n      tag_149\n        /* \"#utility.yul\":994:1001   */\n      dup5\n        /* \"#utility.yul\":985:991   */\n      dup3\n        /* \"#utility.yul\":974:983   */\n      dup6\n        /* \"#utility.yul\":970:992   */\n      add\n        /* \"#utility.yul\":949:1002   */\n      tag_113\n      jump\t// in\n    tag_149:\n        /* \"#utility.yul\":939:1002   */\n      swap2\n      pop\n        /* \"#utility.yul\":895:1012   */\n      pop\n        /* \"#utility.yul\":690:1019   */\n      swap3\n      swap2\n      pop\n      pop\n      jump\t// out\n        /* \"#utility.yul\":1025:1151   */\n    tag_114:\n        /* \"#utility.yul\":1062:1069   */\n      0x00\n        /* \"#utility.yul\":1102:1144   */\n      0xffffffffffffffffffffffffffffffffffffffff\n        /* \"#utility.yul\":1095:1100   */\n      dup3\n        /* \"#utility.yul\":1091:1145   */\n      and\n        /* \"#utility.yul\":1080:1145   */\n      swap1\n      pop\n        /* \"#utility.yul\":1025:1151   */\n      swap2\n      swap1\n      pop\n      jump\t// out\n        /* \"#utility.yul\":1157:1253   */\n    tag_115:\n        /* \"#utility.yul\":1194:1201   */\n      0x00\n        /* \"#utility.yul\":1223:1247   */\n      tag_152\n        /* \"#utility.yul\":1241:1246   */\n      dup3\n        /* \"#utility.yul\":1223:1247   */\n      tag_114\n      jump\t// in\n    tag_152:\n        /* \"#utility.yul\":1212:1247   */\n      swap1\n      pop\n        /* \"#utility.yul\":1157:1253   */\n      swap2\n      swap1\n      pop\n      jump\t// out\n        /* \"#utility.yul\":1259:1377   */\n    tag_116:\n        /* \"#utility.yul\":1346:1370   */\n      tag_154\n        /* \"#utility.yul\":1364:1369   */\n      dup2\n        /* \"#utility.yul\":1346:1370   */\n      tag_115\n      jump\t// in\n    tag_154:\n        /* \"#utility.yul\":1341:1344   */\n      dup3\n        /* \"#utility.yul\":1334:1371   */\n      mstore\n        /* \"#utility.yul\":1259:1377   */\n      pop\n      pop\n      jump\t// out\n        /* \"#utility.yul\":1383:1605   */\n    tag_25:\n        /* \"#utility.yul\":1476:1480   */\n      0x00\n        /* \"#utility.yul\":1514:1516   */\n      0x20\n        /* \"#utility.yul\":1503:1512   */\n      dup3\n        /* \"#utility.yul\":1499:1517   */\n      add\n        /* \"#utility.yul\":1491:1517   */\n      swap1\n      pop\n        /* \"#utility.yul\":1527:1598   */\n      tag_156\n        /* \"#utility.yul\":1595:1596   */\n      0x00\n        /* \"#utility.yul\":1584:1593   */\n      dup4\n        /* \"#utility.yul\":1580:1597   */\n      add\n        /* \"#utility.yul\":1571:1577   */\n      dup5\n        /* \"#utility.yul\":1527:1598   */\n      tag_116\n      jump\t// in\n    tag_156:\n        /* \"#utility.yul\":1383:1605   */\n      swap3\n      swap2\n      pop\n      pop\n      jump\t// out\n        /* \"#utility.yul\":1611:1733   */\n    tag_117:\n        /* \"#utility.yul\":1684:1708   */\n      tag_158\n        /* \"#utility.yul\":1702:1707   */\n      dup2\n        /* \"#utility.yul\":1684:1708   */\n      tag_115\n      jump\t// in\n    tag_158:\n        /* \"#utility.yul\":1677:1682   */\n      dup2\n        /* \"#utility.yul\":1674:1709   */\n      eq\n        /* \"#utility.yul\":1664:1727   */\n      tag_159\n      jumpi\n        /* \"#utility.yul\":1723:1724   */\n      0x00\n        /* \"#utility.yul\":1720:1721   */\n      dup1\n        /* \"#utility.yul\":1713:1725   */\n      revert\n        /* \"#utility.yul\":1664:1727   */\n    tag_159:\n        /* \"#utility.yul\":1611:1733   */\n      pop\n      jump\t// out\n        /* \"#utility.yul\":1739:1878   */\n    tag_118:\n        /* \"#utility.yul\":1785:1790   */\n      0x00\n        /* \"#utility.yul\":1823:1829   */\n      dup2\n        /* \"#utility.yul\":1810:1830   */\n      calldataload\n        /* \"#utility.yul\":1801:1830   */\n      swap1\n      pop\n        /* \"#utility.yul\":1839:1872   */\n      tag_161\n        /* \"#utility.yul\":1866:1871   */\n      dup2\n        /* \"#utility.yul\":1839:1872   */\n      tag_117\n      jump\t// in\n    tag_161:\n        /* \"#utility.yul\":1739:1878   */\n      swap3\n      swap2\n      pop\n      pop\n      jump\t// out\n        /* \"#utility.yul\":1884:2503   */\n    tag_38:\n        /* \"#utility.yul\":1961:1967   */\n      0x00\n        /* \"#utility.yul\":1969:1975   */\n      dup1\n        /* \"#utility.yul\":1977:1983   */\n      0x00\n        /* \"#utility.yul\":2026:2028   */\n      0x60\n        /* \"#utility.yul\":2014:2023   */\n      dup5\n        /* \"#utility.yul\":2005:2012   */\n      dup7\n        /* \"#utility.yul\":2001:2024   */\n      sub\n        /* \"#utility.yul\":1997:2029   */\n      slt\n        /* \"#utility.yul\":1994:2113   */\n      iszero\n      tag_163\n      jumpi\n        /* \"#utility.yul\":2032:2111   */\n      tag_164\n      tag_109\n      jump\t// in\n    tag_164:\n        /* \"#utility.yul\":1994:2113   */\n    tag_163:\n        /* \"#utility.yul\":2152:2153   */\n      0x00\n        /* \"#utility.yul\":2177:2230   */\n      tag_165\n        /* \"#utility.yul\":2222:2229   */\n      dup7\n        /* \"#utility.yul\":2213:2219   */\n      dup3\n        /* \"#utility.yul\":2202:2211   */\n      dup8\n        /* \"#utility.yul\":2198:2220   */\n      add\n        /* \"#utility.yul\":2177:2230   */\n      tag_113\n      jump\t// in\n    tag_165:\n        /* \"#utility.yul\":2167:2230   */\n      swap4\n      pop\n        /* \"#utility.yul\":2123:2240   */\n      pop\n        /* \"#utility.yul\":2279:2281   */\n      0x20\n        /* \"#utility.yul\":2305:2358   */\n      tag_166\n        /* \"#utility.yul\":2350:2357   */\n      dup7\n        /* \"#utility.yul\":2341:2347   */\n      dup3\n        /* \"#utility.yul\":2330:2339   */\n      dup8\n        /* \"#utility.yul\":2326:2348   */\n      add\n        /* \"#utility.yul\":2305:2358   */\n      tag_118\n      jump\t// in\n    tag_166:\n        /* \"#utility.yul\":2295:2358   */\n      swap3\n      pop\n        /* \"#utility.yul\":2250:2368   */\n      pop\n        /* \"#utility.yul\":2407:2409   */\n      0x40\n        /* \"#utility.yul\":2433:2486   */\n      tag_167\n        /* \"#utility.yul\":2478:2485   */\n      dup7\n        /* \"#utility.yul\":2469:2475   */\n      dup3\n        /* \"#utility.yul\":2458:2467   */\n      dup8\n        /* \"#utility.yul\":2454:2476   */\n      add\n        /* \"#utility.yul\":2433:2486   */\n      tag_118\n      jump\t// in\n    tag_167:\n        /* \"#utility.yul\":2423:2486   */\n      swap2\n      pop\n        /* \"#utility.yul\":2378:2496   */\n      pop\n        /* \"#utility.yul\":1884:2503   */\n      swap3\n      pop\n      swap3\n      pop\n      swap3\n      jump\t// out\n        /* \"#utility.yul\":2509:2627   */\n    tag_119:\n        /* \"#utility.yul\":2596:2620   */\n      tag_169\n        /* \"#utility.yul\":2614:2619   */\n      dup2\n        /* \"#utility.yul\":2596:2620   */\n      tag_111\n      jump\t// in\n    tag_169:\n        /* \"#utility.yul\":2591:2594   */\n      dup3\n        /* \"#utility.yul\":2584:2621   */\n      mstore\n        /* \"#utility.yul\":2509:2627   */\n      pop\n      pop\n      jump\t// out\n        /* \"#utility.yul\":2633:2747   */\n    tag_120:\n        /* \"#utility.yul\":2700:2706   */\n      0x00\n        /* \"#utility.yul\":2734:2739   */\n      dup2\n        /* \"#utility.yul\":2728:2740   */\n      mload\n        /* \"#utility.yul\":2718:2740   */\n      swap1\n      pop\n        /* \"#utility.yul\":2633:2747   */\n      swap2\n      swap1\n      pop\n      jump\t// out\n        /* \"#utility.yul\":2753:2937   */\n    tag_121:\n        /* \"#utility.yul\":2852:2863   */\n      0x00\n        /* \"#utility.yul\":2886:2892   */\n      dup3\n        /* \"#utility.yul\":2881:2884   */\n      dup3\n        /* \"#utility.yul\":2874:2893   */\n      mstore\n        /* \"#utility.yul\":2926:2930   */\n      0x20\n        /* \"#utility.yul\":2921:2924   */\n      dup3\n        /* \"#utility.yul\":2917:2931   */\n      add\n        /* \"#utility.yul\":2902:2931   */\n      swap1\n      pop\n        /* \"#utility.yul\":2753:2937   */\n      swap3\n      swap2\n      pop\n      pop\n      jump\t// out\n        /* \"#utility.yul\":2943:3075   */\n    tag_122:\n        /* \"#utility.yul\":3010:3014   */\n      0x00\n        /* \"#utility.yul\":3033:3036   */\n      dup2\n        /* \"#utility.yul\":3025:3036   */\n      swap1\n      pop\n        /* \"#utility.yul\":3063:3067   */\n      0x20\n        /* \"#utility.yul\":3058:3061   */\n      dup3\n        /* \"#utility.yul\":3054:3068   */\n      add\n        /* \"#utility.yul\":3046:3068   */\n      swap1\n      pop\n        /* \"#utility.yul\":2943:3075   */\n      swap2\n      swap1\n      pop\n      jump\t// out\n        /* \"#utility.yul\":3081:3189   */\n    tag_123:\n        /* \"#utility.yul\":3158:3182   */\n      tag_174\n        /* \"#utility.yul\":3176:3181   */\n      dup2\n        /* \"#utility.yul\":3158:3182   */\n      tag_115\n      jump\t// in\n    tag_174:\n        /* \"#utility.yul\":3153:3156   */\n      dup3\n        /* \"#utility.yul\":3146:3183   */\n      mstore\n        /* \"#utility.yul\":3081:3189   */\n      pop\n      pop\n      jump\t// out\n        /* \"#utility.yul\":3195:3374   */\n    tag_124:\n        /* \"#utility.yul\":3264:3274   */\n      0x00\n        /* \"#utility.yul\":3285:3331   */\n      tag_176\n        /* \"#utility.yul\":3327:3330   */\n      dup4\n        /* \"#utility.yul\":3319:3325   */\n      dup4\n        /* \"#utility.yul\":3285:3331   */\n      tag_123\n      jump\t// in\n    tag_176:\n        /* \"#utility.yul\":3363:3367   */\n      0x20\n        /* \"#utility.yul\":3358:3361   */\n      dup4\n        /* \"#utility.yul\":3354:3368   */\n      add\n        /* \"#utility.yul\":3340:3368   */\n      swap1\n      pop\n        /* \"#utility.yul\":3195:3374   */\n      swap3\n      swap2\n      pop\n      pop\n      jump\t// out\n        /* \"#utility.yul\":3380:3493   */\n    tag_125:\n        /* \"#utility.yul\":3450:3454   */\n      0x00\n        /* \"#utility.yul\":3482:3486   */\n      0x20\n        /* \"#utility.yul\":3477:3480   */\n      dup3\n        /* \"#utility.yul\":3473:3487   */\n      add\n        /* \"#utility.yul\":3465:3487   */\n      swap1\n      pop\n        /* \"#utility.yul\":3380:3493   */\n      swap2\n      swap1\n      pop\n      jump\t// out\n        /* \"#utility.yul\":3529:4261   */\n    tag_126:\n        /* \"#utility.yul\":3648:3651   */\n      0x00\n        /* \"#utility.yul\":3677:3731   */\n      tag_179\n        /* \"#utility.yul\":3725:3730   */\n      dup3\n        /* \"#utility.yul\":3677:3731   */\n      tag_120\n      jump\t// in\n    tag_179:\n        /* \"#utility.yul\":3747:3833   */\n      tag_180\n        /* \"#utility.yul\":3826:3832   */\n      dup2\n        /* \"#utility.yul\":3821:3824   */\n      dup6\n        /* \"#utility.yul\":3747:3833   */\n      tag_121\n      jump\t// in\n    tag_180:\n        /* \"#utility.yul\":3740:3833   */\n      swap4\n      pop\n        /* \"#utility.yul\":3857:3913   */\n      tag_181\n        /* \"#utility.yul\":3907:3912   */\n      dup4\n        /* \"#utility.yul\":3857:3913   */\n      tag_122\n      jump\t// in\n    tag_181:\n        /* \"#utility.yul\":3936:3943   */\n      dup1\n        /* \"#utility.yul\":3967:3968   */\n      0x00\n        /* \"#utility.yul\":3952:4236   */\n    tag_182:\n        /* \"#utility.yul\":3977:3983   */\n      dup4\n        /* \"#utility.yul\":3974:3975   */\n      dup2\n        /* \"#utility.yul\":3971:3984   */\n      lt\n        /* \"#utility.yul\":3952:4236   */\n      iszero\n      tag_184\n      jumpi\n        /* \"#utility.yul\":4053:4059   */\n      dup2\n        /* \"#utility.yul\":4047:4060   */\n      mload\n        /* \"#utility.yul\":4080:4143   */\n      tag_185\n        /* \"#utility.yul\":4139:4142   */\n      dup9\n        /* \"#utility.yul\":4124:4137   */\n      dup3\n        /* \"#utility.yul\":4080:4143   */\n      tag_124\n      jump\t// in\n    tag_185:\n        /* \"#utility.yul\":4073:4143   */\n      swap8\n      pop\n        /* \"#utility.yul\":4166:4226   */\n      tag_186\n        /* \"#utility.yul\":4219:4225   */\n      dup4\n        /* \"#utility.yul\":4166:4226   */\n      tag_125\n      jump\t// in\n    tag_186:\n        /* \"#utility.yul\":4156:4226   */\n      swap3\n      pop\n        /* \"#utility.yul\":4012:4236   */\n      pop\n        /* \"#utility.yul\":3999:4000   */\n      0x01\n        /* \"#utility.yul\":3996:3997   */\n      dup2\n        /* \"#utility.yul\":3992:4001   */\n      add\n        /* \"#utility.yul\":3987:4001   */\n      swap1\n      pop\n        /* \"#utility.yul\":3952:4236   */\n      jump(tag_182)\n    tag_184:\n        /* \"#utility.yul\":3956:3970   */\n      pop\n        /* \"#utility.yul\":4252:4255   */\n      dup6\n        /* \"#utility.yul\":4245:4255   */\n      swap4\n      pop\n        /* \"#utility.yul\":3653:4261   */\n      pop\n      pop\n      pop\n        /* \"#utility.yul\":3529:4261   */\n      swap3\n      swap2\n      pop\n      pop\n      jump\t// out\n        /* \"#utility.yul\":4267:4860   */\n    tag_41:\n        /* \"#utility.yul\":4466:4470   */\n      0x00\n        /* \"#utility.yul\":4504:4506   */\n      0x60\n        /* \"#utility.yul\":4493:4502   */\n      dup3\n        /* \"#utility.yul\":4489:4507   */\n      add\n        /* \"#utility.yul\":4481:4507   */\n      swap1\n      pop\n        /* \"#utility.yul\":4517:4588   */\n      tag_188\n        /* \"#utility.yul\":4585:4586   */\n      0x00\n        /* \"#utility.yul\":4574:4583   */\n      dup4\n        /* \"#utility.yul\":4570:4587   */\n      add\n        /* \"#utility.yul\":4561:4567   */\n      dup7\n        /* \"#utility.yul\":4517:4588   */\n      tag_119\n      jump\t// in\n    tag_188:\n        /* \"#utility.yul\":4598:4670   */\n      tag_189\n        /* \"#utility.yul\":4666:4668   */\n      0x20\n        /* \"#utility.yul\":4655:4664   */\n      dup4\n        /* \"#utility.yul\":4651:4669   */\n      add\n        /* \"#utility.yul\":4642:4648   */\n      dup6\n        /* \"#utility.yul\":4598:4670   */\n      tag_116\n      jump\t// in\n    tag_189:\n        /* \"#utility.yul\":4717:4726   */\n      dup2\n        /* \"#utility.yul\":4711:4715   */\n      dup2\n        /* \"#utility.yul\":4707:4727   */\n      sub\n        /* \"#utility.yul\":4702:4704   */\n      0x40\n        /* \"#utility.yul\":4691:4700   */\n      dup4\n        /* \"#utility.yul\":4687:4705   */\n      add\n        /* \"#utility.yul\":4680:4728   */\n      mstore\n        /* \"#utility.yul\":4745:4853   */\n      tag_190\n        /* \"#utility.yul\":4848:4852   */\n      dup2\n        /* \"#utility.yul\":4839:4845   */\n      dup5\n        /* \"#utility.yul\":4745:4853   */\n      tag_126\n      jump\t// in\n    tag_190:\n        /* \"#utility.yul\":4737:4853   */\n      swap1\n      pop\n        /* \"#utility.yul\":4267:4860   */\n      swap5\n      swap4\n      pop\n      pop\n      pop\n      pop\n      jump\t// out\n        /* \"#utility.yul\":4866:5088   */\n    tag_47:\n        /* \"#utility.yul\":4959:4963   */\n      0x00\n        /* \"#utility.yul\":4997:4999   */\n      0x20\n        /* \"#utility.yul\":4986:4995   */\n      dup3\n        /* \"#utility.yul\":4982:5000   */\n      add\n        /* \"#utility.yul\":4974:5000   */\n      swap1\n      pop\n        /* \"#utility.yul\":5010:5081   */\n      tag_192\n        /* \"#utility.yul\":5078:5079   */\n      0x00\n        /* \"#utility.yul\":5067:5076   */\n      dup4\n        /* \"#utility.yul\":5063:5080   */\n      add\n        /* \"#utility.yul\":5054:5060   */\n      dup5\n        /* \"#utility.yul\":5010:5081   */\n      tag_119\n      jump\t// in\n    tag_192:\n        /* \"#utility.yul\":4866:5088   */\n      swap3\n      swap2\n      pop\n      pop\n      jump\t// out\n        /* \"#utility.yul\":5094:5423   */\n    tag_50:\n        /* \"#utility.yul\":5153:5159   */\n      0x00\n        /* \"#utility.yul\":5202:5204   */\n      0x20\n        /* \"#utility.yul\":5190:5199   */\n      dup3\n        /* \"#utility.yul\":5181:5188   */\n      dup5\n        /* \"#utility.yul\":5177:5200   */\n      sub\n        /* \"#utility.yul\":5173:5205   */\n      slt\n        /* \"#utility.yul\":5170:5289   */\n      iszero\n      tag_194\n      jumpi\n        /* \"#utility.yul\":5208:5287   */\n      tag_195\n      tag_109\n      jump\t// in\n    tag_195:\n        /* \"#utility.yul\":5170:5289   */\n    tag_194:\n        /* \"#utility.yul\":5328:5329   */\n      0x00\n        /* \"#utility.yul\":5353:5406   */\n      tag_196\n        /* \"#utility.yul\":5398:5405   */\n      dup5\n        /* \"#utility.yul\":5389:5395   */\n      dup3\n        /* \"#utility.yul\":5378:5387   */\n      dup6\n        /* \"#utility.yul\":5374:5396   */\n      add\n        /* \"#utility.yul\":5353:5406   */\n      tag_118\n      jump\t// in\n    tag_196:\n        /* \"#utility.yul\":5343:5406   */\n      swap2\n      pop\n        /* \"#utility.yul\":5299:5416   */\n      pop\n        /* \"#utility.yul\":5094:5423   */\n      swap3\n      swap2\n      pop\n      pop\n      jump\t// out\n        /* \"#utility.yul\":5429:5546   */\n    tag_127:\n        /* \"#utility.yul\":5538:5539   */\n      0x00\n        /* \"#utility.yul\":5535:5536   */\n      dup1\n        /* \"#utility.yul\":5528:5540   */\n      revert\n        /* \"#utility.yul\":5552:5654   */\n    tag_128:\n        /* \"#utility.yul\":5593:5599   */\n      0x00\n        /* \"#utility.yul\":5644:5646   */\n      0x1f\n        /* \"#utility.yul\":5640:5647   */\n      not\n        /* \"#utility.yul\":5635:5637   */\n      0x1f\n        /* \"#utility.yul\":5628:5633   */\n      dup4\n        /* \"#utility.yul\":5624:5638   */\n      add\n        /* \"#utility.yul\":5620:5648   */\n      and\n        /* \"#utility.yul\":5610:5648   */\n      swap1\n      pop\n        /* \"#utility.yul\":5552:5654   */\n      swap2\n      swap1\n      pop\n      jump\t// out\n        /* \"#utility.yul\":5660:5840   */\n    tag_129:\n        /* \"#utility.yul\":5708:5785   */\n      0x4e487b7100000000000000000000000000000000000000000000000000000000\n        /* \"#utility.yul\":5705:5706   */\n      0x00\n        /* \"#utility.yul\":5698:5786   */\n      mstore\n        /* \"#utility.yul\":5805:5809   */\n      0x41\n        /* \"#utility.yul\":5802:5803   */\n      0x04\n        /* \"#utility.yul\":5795:5810   */\n      mstore\n        /* \"#utility.yul\":5829:5833   */\n      0x24\n        /* \"#utility.yul\":5826:5827   */\n      0x00\n        /* \"#utility.yul\":5819:5834   */\n      revert\n        /* \"#utility.yul\":5846:6127   */\n    tag_130:\n        /* \"#utility.yul\":5929:5956   */\n      tag_201\n        /* \"#utility.yul\":5951:5955   */\n      dup3\n        /* \"#utility.yul\":5929:5956   */\n      tag_128\n      jump\t// in\n    tag_201:\n        /* \"#utility.yul\":5921:5927   */\n      dup2\n        /* \"#utility.yul\":5917:5957   */\n      add\n        /* \"#utility.yul\":6059:6065   */\n      dup2\n        /* \"#utility.yul\":6047:6057   */\n      dup2\n        /* \"#utility.yul\":6044:6066   */\n      lt\n        /* \"#utility.yul\":6023:6041   */\n      0xffffffffffffffff\n        /* \"#utility.yul\":6011:6021   */\n      dup3\n        /* \"#utility.yul\":6008:6042   */\n      gt\n        /* \"#utility.yul\":6005:6067   */\n      or\n        /* \"#utility.yul\":6002:6090   */\n      iszero\n      tag_202\n      jumpi\n        /* \"#utility.yul\":6070:6088   */\n      tag_203\n      tag_129\n      jump\t// in\n    tag_203:\n        /* \"#utility.yul\":6002:6090   */\n    tag_202:\n        /* \"#utility.yul\":6110:6120   */\n      dup1\n        /* \"#utility.yul\":6106:6108   */\n      0x40\n        /* \"#utility.yul\":6099:6121   */\n      mstore\n        /* \"#utility.yul\":5889:6127   */\n      pop\n        /* \"#utility.yul\":5846:6127   */\n      pop\n      pop\n      jump\t// out\n        /* \"#utility.yul\":6133:6262   */\n    tag_131:\n        /* \"#utility.yul\":6167:6173   */\n      0x00\n        /* \"#utility.yul\":6194:6214   */\n      tag_205\n      tag_108\n      jump\t// in\n    tag_205:\n        /* \"#utility.yul\":6184:6214   */\n      swap1\n      pop\n        /* \"#utility.yul\":6223:6256   */\n      tag_206\n        /* \"#utility.yul\":6251:6255   */\n      dup3\n        /* \"#utility.yul\":6243:6249   */\n      dup3\n        /* \"#utility.yul\":6223:6256   */\n      tag_130\n      jump\t// in\n    tag_206:\n        /* \"#utility.yul\":6133:6262   */\n      swap2\n      swap1\n      pop\n      jump\t// out\n        /* \"#utility.yul\":6268:6579   */\n    tag_132:\n        /* \"#utility.yul\":6345:6349   */\n      0x00\n        /* \"#utility.yul\":6435:6453   */\n      0xffffffffffffffff\n        /* \"#utility.yul\":6427:6433   */\n      dup3\n        /* \"#utility.yul\":6424:6454   */\n      gt\n        /* \"#utility.yul\":6421:6477   */\n      iszero\n      tag_208\n      jumpi\n        /* \"#utility.yul\":6457:6475   */\n      tag_209\n      tag_129\n      jump\t// in\n    tag_209:\n        /* \"#utility.yul\":6421:6477   */\n    tag_208:\n        /* \"#utility.yul\":6507:6511   */\n      0x20\n        /* \"#utility.yul\":6499:6505   */\n      dup3\n        /* \"#utility.yul\":6495:6512   */\n      mul\n        /* \"#utility.yul\":6487:6512   */\n      swap1\n      pop\n        /* \"#utility.yul\":6567:6571   */\n      0x20\n        /* \"#utility.yul\":6561:6565   */\n      dup2\n        /* \"#utility.yul\":6557:6572   */\n      add\n        /* \"#utility.yul\":6549:6572   */\n      swap1\n      pop\n        /* \"#utility.yul\":6268:6579   */\n      swap2\n      swap1\n      pop\n      jump\t// out\n        /* \"#utility.yul\":6585:6702   */\n    tag_133:\n        /* \"#utility.yul\":6694:6695   */\n      0x00\n        /* \"#utility.yul\":6691:6692   */\n      dup1\n        /* \"#utility.yul\":6684:6696   */\n      revert\n        /* \"#utility.yul\":6725:7435   */\n    tag_134:\n        /* \"#utility.yul\":6821:6826   */\n      0x00\n        /* \"#utility.yul\":6846:6927   */\n      tag_212\n        /* \"#utility.yul\":6862:6926   */\n      tag_213\n        /* \"#utility.yul\":6919:6925   */\n      dup5\n        /* \"#utility.yul\":6862:6926   */\n      tag_132\n      jump\t// in\n    tag_213:\n        /* \"#utility.yul\":6846:6927   */\n      tag_131\n      jump\t// in\n    tag_212:\n        /* \"#utility.yul\":6837:6927   */\n      swap1\n      pop\n        /* \"#utility.yul\":6947:6952   */\n      dup1\n        /* \"#utility.yul\":6976:6982   */\n      dup4\n        /* \"#utility.yul\":6969:6974   */\n      dup3\n        /* \"#utility.yul\":6962:6983   */\n      mstore\n        /* \"#utility.yul\":7010:7014   */\n      0x20\n        /* \"#utility.yul\":7003:7008   */\n      dup3\n        /* \"#utility.yul\":6999:7015   */\n      add\n        /* \"#utility.yul\":6992:7015   */\n      swap1\n      pop\n        /* \"#utility.yul\":7063:7067   */\n      0x20\n        /* \"#utility.yul\":7055:7061   */\n      dup5\n        /* \"#utility.yul\":7051:7068   */\n      mul\n        /* \"#utility.yul\":7043:7049   */\n      dup4\n        /* \"#utility.yul\":7039:7069   */\n      add\n        /* \"#utility.yul\":7092:7095   */\n      dup6\n        /* \"#utility.yul\":7084:7090   */\n      dup2\n        /* \"#utility.yul\":7081:7096   */\n      gt\n        /* \"#utility.yul\":7078:7200   */\n      iszero\n      tag_214\n      jumpi\n        /* \"#utility.yul\":7111:7190   */\n      tag_215\n      tag_133\n      jump\t// in\n    tag_215:\n        /* \"#utility.yul\":7078:7200   */\n    tag_214:\n        /* \"#utility.yul\":7226:7232   */\n      dup4\n        /* \"#utility.yul\":7209:7429   */\n    tag_216:\n        /* \"#utility.yul\":7243:7249   */\n      dup2\n        /* \"#utility.yul\":7238:7241   */\n      dup2\n        /* \"#utility.yul\":7235:7250   */\n      lt\n        /* \"#utility.yul\":7209:7429   */\n      iszero\n      tag_218\n      jumpi\n        /* \"#utility.yul\":7318:7321   */\n      dup1\n        /* \"#utility.yul\":7347:7384   */\n      tag_219\n        /* \"#utility.yul\":7380:7383   */\n      dup9\n        /* \"#utility.yul\":7368:7378   */\n      dup3\n        /* \"#utility.yul\":7347:7384   */\n      tag_118\n      jump\t// in\n    tag_219:\n        /* \"#utility.yul\":7342:7345   */\n      dup5\n        /* \"#utility.yul\":7335:7385   */\n      mstore\n        /* \"#utility.yul\":7414:7418   */\n      0x20\n        /* \"#utility.yul\":7409:7412   */\n      dup5\n        /* \"#utility.yul\":7405:7419   */\n      add\n        /* \"#utility.yul\":7398:7419   */\n      swap4\n      pop\n        /* \"#utility.yul\":7285:7429   */\n      pop\n        /* \"#utility.yul\":7269:7273   */\n      0x20\n        /* \"#utility.yul\":7264:7267   */\n      dup2\n        /* \"#utility.yul\":7260:7274   */\n      add\n        /* \"#utility.yul\":7253:7274   */\n      swap1\n      pop\n        /* \"#utility.yul\":7209:7429   */\n      jump(tag_216)\n    tag_218:\n        /* \"#utility.yul\":7213:7234   */\n      pop\n        /* \"#utility.yul\":6827:7435   */\n      pop\n      pop\n        /* \"#utility.yul\":6725:7435   */\n      swap4\n      swap3\n      pop\n      pop\n      pop\n      jump\t// out\n        /* \"#utility.yul\":7458:7828   */\n    tag_135:\n        /* \"#utility.yul\":7529:7534   */\n      0x00\n        /* \"#utility.yul\":7578:7581   */\n      dup3\n        /* \"#utility.yul\":7571:7575   */\n      0x1f\n        /* \"#utility.yul\":7563:7569   */\n      dup4\n        /* \"#utility.yul\":7559:7576   */\n      add\n        /* \"#utility.yul\":7555:7582   */\n      slt\n        /* \"#utility.yul\":7545:7667   */\n      tag_221\n      jumpi\n        /* \"#utility.yul\":7586:7665   */\n      tag_222\n      tag_127\n      jump\t// in\n    tag_222:\n        /* \"#utility.yul\":7545:7667   */\n    tag_221:\n        /* \"#utility.yul\":7703:7709   */\n      dup2\n        /* \"#utility.yul\":7690:7710   */\n      calldataload\n        /* \"#utility.yul\":7728:7822   */\n      tag_223\n        /* \"#utility.yul\":7818:7821   */\n      dup5\n        /* \"#utility.yul\":7810:7816   */\n      dup3\n        /* \"#utility.yul\":7803:7807   */\n      0x20\n        /* \"#utility.yul\":7795:7801   */\n      dup7\n        /* \"#utility.yul\":7791:7808   */\n      add\n        /* \"#utility.yul\":7728:7822   */\n      tag_134\n      jump\t// in\n    tag_223:\n        /* \"#utility.yul\":7719:7822   */\n      swap2\n      pop\n        /* \"#utility.yul\":7535:7828   */\n      pop\n        /* \"#utility.yul\":7458:7828   */\n      swap3\n      swap2\n      pop\n      pop\n      jump\t// out\n        /* \"#utility.yul\":7834:8809   */\n    tag_54:\n        /* \"#utility.yul\":7945:7951   */\n      0x00\n        /* \"#utility.yul\":7953:7959   */\n      dup1\n        /* \"#utility.yul\":7961:7967   */\n      0x00\n        /* \"#utility.yul\":7969:7975   */\n      dup1\n        /* \"#utility.yul\":8018:8021   */\n      0x80\n        /* \"#utility.yul\":8006:8015   */\n      dup6\n        /* \"#utility.yul\":7997:8004   */\n      dup8\n        /* \"#utility.yul\":7993:8016   */\n      sub\n        /* \"#utility.yul\":7989:8022   */\n      slt\n        /* \"#utility.yul\":7986:8106   */\n      iszero\n      tag_225\n      jumpi\n        /* \"#utility.yul\":8025:8104   */\n      tag_226\n      tag_109\n      jump\t// in\n    tag_226:\n        /* \"#utility.yul\":7986:8106   */\n    tag_225:\n        /* \"#utility.yul\":8145:8146   */\n      0x00\n        /* \"#utility.yul\":8170:8223   */\n      tag_227\n        /* \"#utility.yul\":8215:8222   */\n      dup8\n        /* \"#utility.yul\":8206:8212   */\n      dup3\n        /* \"#utility.yul\":8195:8204   */\n      dup9\n        /* \"#utility.yul\":8191:8213   */\n      add\n        /* \"#utility.yul\":8170:8223   */\n      tag_113\n      jump\t// in\n    tag_227:\n        /* \"#utility.yul\":8160:8223   */\n      swap5\n      pop\n        /* \"#utility.yul\":8116:8233   */\n      pop\n        /* \"#utility.yul\":8272:8274   */\n      0x20\n        /* \"#utility.yul\":8298:8351   */\n      tag_228\n        /* \"#utility.yul\":8343:8350   */\n      dup8\n        /* \"#utility.yul\":8334:8340   */\n      dup3\n        /* \"#utility.yul\":8323:8332   */\n      dup9\n        /* \"#utility.yul\":8319:8341   */\n      add\n        /* \"#utility.yul\":8298:8351   */\n      tag_113\n      jump\t// in\n    tag_228:\n        /* \"#utility.yul\":8288:8351   */\n      swap4\n      pop\n        /* \"#utility.yul\":8243:8361   */\n      pop\n        /* \"#utility.yul\":8400:8402   */\n      0x40\n        /* \"#utility.yul\":8426:8479   */\n      tag_229\n        /* \"#utility.yul\":8471:8478   */\n      dup8\n        /* \"#utility.yul\":8462:8468   */\n      dup3\n        /* \"#utility.yul\":8451:8460   */\n      dup9\n        /* \"#utility.yul\":8447:8469   */\n      add\n        /* \"#utility.yul\":8426:8479   */\n      tag_118\n      jump\t// in\n    tag_229:\n        /* \"#utility.yul\":8416:8479   */\n      swap3\n      pop\n        /* \"#utility.yul\":8371:8489   */\n      pop\n        /* \"#utility.yul\":8556:8558   */\n      0x60\n        /* \"#utility.yul\":8545:8554   */\n      dup6\n        /* \"#utility.yul\":8541:8559   */\n      add\n        /* \"#utility.yul\":8528:8560   */\n      calldataload\n        /* \"#utility.yul\":8587:8605   */\n      0xffffffffffffffff\n        /* \"#utility.yul\":8579:8585   */\n      dup2\n        /* \"#utility.yul\":8576:8606   */\n      gt\n        /* \"#utility.yul\":8573:8690   */\n      iszero\n      tag_230\n      jumpi\n        /* \"#utility.yul\":8609:8688   */\n      tag_231\n      tag_110\n      jump\t// in\n    tag_231:\n        /* \"#utility.yul\":8573:8690   */\n    tag_230:\n        /* \"#utility.yul\":8714:8792   */\n      tag_232\n        /* \"#utility.yul\":8784:8791   */\n      dup8\n        /* \"#utility.yul\":8775:8781   */\n      dup3\n        /* \"#utility.yul\":8764:8773   */\n      dup9\n        /* \"#utility.yul\":8760:8782   */\n      add\n        /* \"#utility.yul\":8714:8792   */\n      tag_135\n      jump\t// in\n    tag_232:\n        /* \"#utility.yul\":8704:8792   */\n      swap2\n      pop\n        /* \"#utility.yul\":8499:8802   */\n      pop\n        /* \"#utility.yul\":7834:8809   */\n      swap3\n      swap6\n      swap2\n      swap5\n      pop\n      swap3\n      pop\n      jump\t// out\n        /* \"#utility.yul\":8815:9188   */\n    tag_60:\n        /* \"#utility.yul\":8958:8962   */\n      0x00\n        /* \"#utility.yul\":8996:8998   */\n      0x20\n        /* \"#utility.yul\":8985:8994   */\n      dup3\n        /* \"#utility.yul\":8981:8999   */\n      add\n        /* \"#utility.yul\":8973:8999   */\n      swap1\n      pop\n        /* \"#utility.yul\":9045:9054   */\n      dup2\n        /* \"#utility.yul\":9039:9043   */\n      dup2\n        /* \"#utility.yul\":9035:9055   */\n      sub\n        /* \"#utility.yul\":9031:9032   */\n      0x00\n        /* \"#utility.yul\":9020:9029   */\n      dup4\n        /* \"#utility.yul\":9016:9033   */\n      add\n        /* \"#utility.yul\":9009:9056   */\n      mstore\n        /* \"#utility.yul\":9073:9181   */\n      tag_234\n        /* \"#utility.yul\":9176:9180   */\n      dup2\n        /* \"#utility.yul\":9167:9173   */\n      dup5\n        /* \"#utility.yul\":9073:9181   */\n      tag_126\n      jump\t// in\n    tag_234:\n        /* \"#utility.yul\":9065:9181   */\n      swap1\n      pop\n        /* \"#utility.yul\":8815:9188   */\n      swap3\n      swap2\n      pop\n      pop\n      jump\t// out\n        /* \"#utility.yul\":9194:9374   */\n    tag_77:\n        /* \"#utility.yul\":9242:9319   */\n      0x4e487b7100000000000000000000000000000000000000000000000000000000\n        /* \"#utility.yul\":9239:9240   */\n      0x00\n        /* \"#utility.yul\":9232:9320   */\n      mstore\n        /* \"#utility.yul\":9339:9343   */\n      0x32\n        /* \"#utility.yul\":9336:9337   */\n      0x04\n        /* \"#utility.yul\":9329:9344   */\n      mstore\n        /* \"#utility.yul\":9363:9367   */\n      0x24\n        /* \"#utility.yul\":9360:9361   */\n      0x00\n        /* \"#utility.yul\":9353:9368   */\n      revert\n        /* \"#utility.yul\":9380:9560   */\n    tag_89:\n        /* \"#utility.yul\":9428:9505   */\n      0x4e487b7100000000000000000000000000000000000000000000000000000000\n        /* \"#utility.yul\":9425:9426   */\n      0x00\n        /* \"#utility.yul\":9418:9506   */\n      mstore\n        /* \"#utility.yul\":9525:9529   */\n      0x31\n        /* \"#utility.yul\":9522:9523   */\n      0x04\n        /* \"#utility.yul\":9515:9530   */\n      mstore\n        /* \"#utility.yul\":9549:9553   */\n      0x24\n        /* \"#utility.yul\":9546:9547   */\n      0x00\n        /* \"#utility.yul\":9539:9554   */\n      revert\n\n    auxdata: 0xa26469706673582212207a718ab4455d5a473bc15e0f571d1ef3e5c46423e631aa027a44df577884d79064736f6c634300080f0033\n}\n",
				"bytecode": {
					"linkReferences": {},
					"object": "608060405234801561001057600080fd5b50610b95806100206000396000f3fe608060405234801561001057600080fd5b50600436106100ea5760003560e01c80639d964cfe1161008c578063eaaabef411610066578063eaaabef41461024b578063ec60dbe914610255578063f88c31ce14610271578063fdbe1ec31461028f576100ea565b80639d964cfe146101e1578063b3d69dac146101fd578063c74eaa111461022d576100ea565b806372882732116100c8578063728827321461016b57806380ee43f5146101875780638279160c146101b9578063931f2243146101c3576100ea565b806313ede1a1146100ef57806318ed311e1461011f5780634e9c11181461013b575b600080fd5b610109600480360381019061010491906106a8565b6102ad565b6040516101169190610716565b60405180910390f35b610139600480360381019061013491906106a8565b6102ec565b005b610155600480360381019061015091906106a8565b610330565b6040516101629190610716565b60405180910390f35b610185600480360381019061018091906106a8565b61036f565b005b6101a1600480360381019061019c919061075d565b6103b3565b6040516101b09392919061087d565b60405180910390f35b6101c16103c1565b005b6101cb61040a565b6040516101d891906108bb565b60405180910390f35b6101fb60048036038101906101f691906108d6565b610416565b005b61021760048036038101906102129190610a5c565b61047c565b60405161022491906108bb565b60405180910390f35b610235610486565b6040516102429190610adf565b60405180910390f35b610253610514565b005b61026f600480360381019061026a91906108d6565b61055d565b005b6102796105c3565b6040516102869190610adf565b60405180910390f35b610297610651565b6040516102a491906108bb565b60405180910390f35b600181815481106102bd57600080fd5b906000526020600020016000915054906101000a900473ffffffffffffffffffffffffffffffffffffffff1681565b60018181548110610300576102ff610b01565b5b9060005260206000200160006101000a81549073ffffffffffffffffffffffffffffffffffffffff021916905550565b6000818154811061034057600080fd5b906000526020600020016000915054906101000a900473ffffffffffffffffffffffffffffffffffffffff1681565b6000818154811061038357610382610b01565b5b9060005260206000200160006101000a81549073ffffffffffffffffffffffffffffffffffffffff021916905550565b600080606093509350939050565b60018054806103d3576103d2610b30565b5b6001900381819060005260206000200160006101000a81549073ffffffffffffffffffffffffffffffffffffffff02191690559055565b60008080549050905090565b6000819080600181540180825580915050600190039060005260206000200160009091909190916101000a81548173ffffffffffffffffffffffffffffffffffffffff021916908373ffffffffffffffffffffffffffffffffffffffff16021790555050565b6000949350505050565b6060600180548060200260200160405190810160405280929190818152602001828054801561050a57602002820191906000526020600020905b8160009054906101000a900473ffffffffffffffffffffffffffffffffffffffff1673ffffffffffffffffffffffffffffffffffffffff16815260200190600101908083116104c0575b5050505050905090565b600080548061052657610525610b30565b5b6001900381819060005260206000200160006101000a81549073ffffffffffffffffffffffffffffffffffffffff02191690559055565b6001819080600181540180825580915050600190039060005260206000200160009091909190916101000a81548173ffffffffffffffffffffffffffffffffffffffff021916908373ffffffffffffffffffffffffffffffffffffffff16021790555050565b6060600080548060200260200160405190810160405280929190818152602001828054801561064757602002820191906000526020600020905b8160009054906101000a900473ffffffffffffffffffffffffffffffffffffffff1673ffffffffffffffffffffffffffffffffffffffff16815260200190600101908083116105fd575b5050505050905090565b6000600180549050905090565b6000604051905090565b600080fd5b600080fd5b6000819050919050565b61068581610672565b811461069057600080fd5b50565b6000813590506106a28161067c565b92915050565b6000602082840312156106be576106bd610668565b5b60006106cc84828501610693565b91505092915050565b600073ffffffffffffffffffffffffffffffffffffffff82169050919050565b6000610700826106d5565b9050919050565b610710816106f5565b82525050565b600060208201905061072b6000830184610707565b92915050565b61073a816106f5565b811461074557600080fd5b50565b60008135905061075781610731565b92915050565b60008060006060848603121561077657610775610668565b5b600061078486828701610693565b935050602061079586828701610748565b92505060406107a686828701610748565b9150509250925092565b6107b981610672565b82525050565b600081519050919050565b600082825260208201905092915050565b6000819050602082019050919050565b6107f4816106f5565b82525050565b600061080683836107eb565b60208301905092915050565b6000602082019050919050565b600061082a826107bf565b61083481856107ca565b935061083f836107db565b8060005b8381101561087057815161085788826107fa565b975061086283610812565b925050600181019050610843565b5085935050505092915050565b600060608201905061089260008301866107b0565b61089f6020830185610707565b81810360408301526108b1818461081f565b9050949350505050565b60006020820190506108d060008301846107b0565b92915050565b6000602082840312156108ec576108eb610668565b5b60006108fa84828501610748565b91505092915050565b600080fd5b6000601f19601f8301169050919050565b7f4e487b7100000000000000000000000000000000000000000000000000000000600052604160045260246000fd5b61095182610908565b810181811067ffffffffffffffff821117156109705761096f610919565b5b80604052505050565b600061098361065e565b905061098f8282610948565b919050565b600067ffffffffffffffff8211156109af576109ae610919565b5b602082029050602081019050919050565b600080fd5b60006109d86109d384610994565b610979565b905080838252602082019050602084028301858111156109fb576109fa6109c0565b5b835b81811015610a245780610a108882610748565b8452602084019350506020810190506109fd565b5050509392505050565b600082601f830112610a4357610a42610903565b5b8135610a538482602086016109c5565b91505092915050565b60008060008060808587031215610a7657610a75610668565b5b6000610a8487828801610693565b9450506020610a9587828801610693565b9350506040610aa687828801610748565b925050606085013567ffffffffffffffff811115610ac757610ac661066d565b5b610ad387828801610a2e565b91505092959194509250565b60006020820190508181036000830152610af9818461081f565b905092915050565b7f4e487b7100000000000000000000000000000000000000000000000000000000600052603260045260246000fd5b7f4e487b7100000000000000000000000000000000000000000000000000000000600052603160045260246000fdfea26469706673582212207a718ab4455d5a473bc15e0f571d1ef3e5c46423e631aa027a44df577884d79064736f6c634300080f0033",
					"opcodes": "PUSH1 0x80 PUSH1 0x40 MSTORE CALLVALUE DUP1 ISZERO PUSH2 0x10 JUMPI PUSH1 0x0 DUP1 REVERT JUMPDEST POP PUSH2 0xB95 DUP1 PUSH2 0x20 PUSH1 0x0 CODECOPY PUSH1 0x0 RETURN INVALID PUSH1 0x80 PUSH1 0x40 MSTORE CALLVALUE DUP1 ISZERO PUSH2 0x10 JUMPI PUSH1 0x0 DUP1 REVERT JUMPDEST POP PUSH1 0x4 CALLDATASIZE LT PUSH2 0xEA JUMPI PUSH1 0x0 CALLDATALOAD PUSH1 0xE0 SHR DUP1 PUSH4 0x9D964CFE GT PUSH2 0x8C JUMPI DUP1 PUSH4 0xEAAABEF4 GT PUSH2 0x66 JUMPI DUP1 PUSH4 0xEAAABEF4 EQ PUSH2 0x24B JUMPI DUP1 PUSH4 0xEC60DBE9 EQ PUSH2 0x255 JUMPI DUP1 PUSH4 0xF88C31CE EQ PUSH2 0x271 JUMPI DUP1 PUSH4 0xFDBE1EC3 EQ PUSH2 0x28F JUMPI PUSH2 0xEA JUMP JUMPDEST DUP1 PUSH4 0x9D964CFE EQ PUSH2 0x1E1 JUMPI DUP1 PUSH4 0xB3D69DAC EQ PUSH2 0x1FD JUMPI DUP1 PUSH4 0xC74EAA11 EQ PUSH2 0x22D JUMPI PUSH2 0xEA JUMP JUMPDEST DUP1 PUSH4 0x72882732 GT PUSH2 0xC8 JUMPI DUP1 PUSH4 0x72882732 EQ PUSH2 0x16B JUMPI DUP1 PUSH4 0x80EE43F5 EQ PUSH2 0x187 JUMPI DUP1 PUSH4 0x8279160C EQ PUSH2 0x1B9 JUMPI DUP1 PUSH4 0x931F2243 EQ PUSH2 0x1C3 JUMPI PUSH2 0xEA JUMP JUMPDEST DUP1 PUSH4 0x13EDE1A1 EQ PUSH2 0xEF JUMPI DUP1 PUSH4 0x18ED311E EQ PUSH2 0x11F JUMPI DUP1 PUSH4 0x4E9C1118 EQ PUSH2 0x13B JUMPI JUMPDEST PUSH1 0x0 DUP1 REVERT JUMPDEST PUSH2 0x109 PUSH1 0x4 DUP1 CALLDATASIZE SUB DUP2 ADD SWAP1 PUSH2 0x104 SWAP2 SWAP1 PUSH2 0x6A8 JUMP JUMPDEST PUSH2 0x2AD JUMP JUMPDEST PUSH1 0x40 MLOAD PUSH2 0x116 SWAP2 SWAP1 PUSH2 0x716 JUMP JUMPDEST PUSH1 0x40 MLOAD DUP1 SWAP2 SUB SWAP1 RETURN JUMPDEST PUSH2 0x139 PUSH1 0x4 DUP1 CALLDATASIZE SUB DUP2 ADD SWAP1 PUSH2 0x134 SWAP2 SWAP1 PUSH2 0x6A8 JUMP JUMPDEST PUSH2 0x2EC JUMP JUMPDEST STOP JUMPDEST PUSH2 0x155 PUSH1 0x4 DUP1 CALLDATASIZE SUB DUP2 ADD SWAP1 PUSH2 0x150 SWAP2 SWAP1 PUSH2 0x6A8 JUMP JUMPDEST PUSH2 0x330 JUMP JUMPDEST PUSH1 0x40 MLOAD PUSH2 0x162 SWAP2 SWAP1 PUSH2 0x716 JUMP JUMPDEST PUSH1 0x40 MLOAD DUP1 SWAP2 SUB SWAP1 RETURN JUMPDEST PUSH2 0x185 PUSH1 0x4 DUP1 CALLDATASIZE SUB DUP2 ADD SWAP1 PUSH2 0x180 SWAP2 SWAP1 PUSH2 0x6A8 JUMP JUMPDEST PUSH2 0x36F JUMP JUMPDEST STOP JUMPDEST PUSH2 0x1A1 PUSH1 0x4 DUP1 CALLDATASIZE SUB DUP2 ADD SWAP1 PUSH2 0x19C SWAP2 SWAP1 PUSH2 0x75D JUMP JUMPDEST PUSH2 0x3B3 JUMP JUMPDEST PUSH1 0x40 MLOAD PUSH2 0x1B0 SWAP4 SWAP3 SWAP2 SWAP1 PUSH2 0x87D JUMP JUMPDEST PUSH1 0x40 MLOAD DUP1 SWAP2 SUB SWAP1 RETURN JUMPDEST PUSH2 0x1C1 PUSH2 0x3C1 JUMP JUMPDEST STOP JUMPDEST PUSH2 0x1CB PUSH2 0x40A JUMP JUMPDEST PUSH1 0x40 MLOAD PUSH2 0x1D8 SWAP2 SWAP1 PUSH2 0x8BB JUMP JUMPDEST PUSH1 0x40 MLOAD DUP1 SWAP2 SUB SWAP1 RETURN JUMPDEST PUSH2 0x1FB PUSH1 0x4 DUP1 CALLDATASIZE SUB DUP2 ADD SWAP1 PUSH2 0x1F6 SWAP2 SWAP1 PUSH2 0x8D6 JUMP JUMPDEST PUSH2 0x416 JUMP JUMPDEST STOP JUMPDEST PUSH2 0x217 PUSH1 0x4 DUP1 CALLDATASIZE SUB DUP2 ADD SWAP1 PUSH2 0x212 SWAP2 SWAP1 PUSH2 0xA5C JUMP JUMPDEST PUSH2 0x47C JUMP JUMPDEST PUSH1 0x40 MLOAD PUSH2 0x224 SWAP2 SWAP1 PUSH2 0x8BB JUMP JUMPDEST PUSH1 0x40 MLOAD DUP1 SWAP2 SUB SWAP1 RETURN JUMPDEST PUSH2 0x235 PUSH2 0x486 JUMP JUMPDEST PUSH1 0x40 MLOAD PUSH2 0x242 SWAP2 SWAP1 PUSH2 0xADF JUMP JUMPDEST PUSH1 0x40 MLOAD DUP1 SWAP2 SUB SWAP1 RETURN JUMPDEST PUSH2 0x253 PUSH2 0x514 JUMP JUMPDEST STOP JUMPDEST PUSH2 0x26F PUSH1 0x4 DUP1 CALLDATASIZE SUB DUP2 ADD SWAP1 PUSH2 0x26A SWAP2 SWAP1 PUSH2 0x8D6 JUMP JUMPDEST PUSH2 0x55D JUMP JUMPDEST STOP JUMPDEST PUSH2 0x279 PUSH2 0x5C3 JUMP JUMPDEST PUSH1 0x40 MLOAD PUSH2 0x286 SWAP2 SWAP1 PUSH2 0xADF JUMP JUMPDEST PUSH1 0x40 MLOAD DUP1 SWAP2 SUB SWAP1 RETURN JUMPDEST PUSH2 0x297 PUSH2 0x651 JUMP JUMPDEST PUSH1 0x40 MLOAD PUSH2 0x2A4 SWAP2 SWAP1 PUSH2 0x8BB JUMP JUMPDEST PUSH1 0x40 MLOAD DUP1 SWAP2 SUB SWAP1 RETURN JUMPDEST PUSH1 0x1 DUP2 DUP2 SLOAD DUP2 LT PUSH2 0x2BD JUMPI PUSH1 0x0 DUP1 REVERT JUMPDEST SWAP1 PUSH1 0x0 MSTORE PUSH1 0x20 PUSH1 0x0 KECCAK256 ADD PUSH1 0x0 SWAP2 POP SLOAD SWAP1 PUSH2 0x100 EXP SWAP1 DIV PUSH20 0xFFFFFFFFFFFFFFFFFFFFFFFFFFFFFFFFFFFFFFFF AND DUP2 JUMP JUMPDEST PUSH1 0x1 DUP2 DUP2 SLOAD DUP2 LT PUSH2 0x300 JUMPI PUSH2 0x2FF PUSH2 0xB01 JUMP JUMPDEST JUMPDEST SWAP1 PUSH1 0x0 MSTORE PUSH1 0x20 PUSH1 0x0 KECCAK256 ADD PUSH1 0x0 PUSH2 0x100 EXP DUP2 SLOAD SWAP1 PUSH20 0xFFFFFFFFFFFFFFFFFFFFFFFFFFFFFFFFFFFFFFFF MUL NOT AND SWAP1 SSTORE POP JUMP JUMPDEST PUSH1 0x0 DUP2 DUP2 SLOAD DUP2 LT PUSH2 0x340 JUMPI PUSH1 0x0 DUP1 REVERT JUMPDEST SWAP1 PUSH1 0x0 MSTORE PUSH1 0x20 PUSH1 0x0 KECCAK256 ADD PUSH1 0x0 SWAP2 POP SLOAD SWAP1 PUSH2 0x100 EXP SWAP1 DIV PUSH20 0xFFFFFFFFFFFFFFFFFFFFFFFFFFFFFFFFFFFFFFFF AND DUP2 JUMP JUMPDEST PUSH1 0x0 DUP2 DUP2 SLOAD DUP2 LT PUSH2 0x383 JUMPI PUSH2 0x382 PUSH2 0xB01 JUMP JUMPDEST JUMPDEST SWAP1 PUSH1 0x0 MSTORE PUSH1 0x20 PUSH1 0x0 KECCAK256 ADD PUSH1 0x0 PUSH2 0x100 EXP DUP2 SLOAD SWAP1 PUSH20 0xFFFFFFFFFFFFFFFFFFFFFFFFFFFFFFFFFFFFFFFF MUL NOT AND SWAP1 SSTORE POP JUMP JUMPDEST PUSH1 0x0 DUP1 PUSH1 0x60 SWAP4 POP SWAP4 POP SWAP4 SWAP1 POP JUMP JUMPDEST PUSH1 0x1 DUP1 SLOAD DUP1 PUSH2 0x3D3 JUMPI PUSH2 0x3D2 PUSH2 0xB30 JUMP JUMPDEST JUMPDEST PUSH1 0x1 SWAP1 SUB DUP2 DUP2 SWAP1 PUSH1 0x0 MSTORE PUSH1 0x20 PUSH1 0x0 KECCAK256 ADD PUSH1 0x0 PUSH2 0x100 EXP DUP2 SLOAD SWAP1 PUSH20 0xFFFFFFFFFFFFFFFFFFFFFFFFFFFFFFFFFFFFFFFF MUL NOT AND SWAP1 SSTORE SWAP1 SSTORE JUMP JUMPDEST PUSH1 0x0 DUP1 DUP1 SLOAD SWAP1 POP SWAP1 POP SWAP1 JUMP JUMPDEST PUSH1 0x0 DUP2 SWAP1 DUP1 PUSH1 0x1 DUP2 SLOAD ADD DUP1 DUP3 SSTORE DUP1 SWAP2 POP POP PUSH1 0x1 SWAP1 SUB SWAP1 PUSH1 0x0 MSTORE PUSH1 0x20 PUSH1 0x0 KECCAK256 ADD PUSH1 0x0 SWAP1 SWAP2 SWAP1 SWAP2 SWAP1 SWAP2 PUSH2 0x100 EXP DUP2 SLOAD DUP2 PUSH20 0xFFFFFFFFFFFFFFFFFFFFFFFFFFFFFFFFFFFFFFFF MUL NOT AND SWAP1 DUP4 PUSH20 0xFFFFFFFFFFFFFFFFFFFFFFFFFFFFFFFFFFFFFFFF AND MUL OR SWAP1 SSTORE POP POP JUMP JUMPDEST PUSH1 0x0 SWAP5 SWAP4 POP POP POP POP JUMP JUMPDEST PUSH1 0x60 PUSH1 0x1 DUP1 SLOAD DUP1 PUSH1 0x20 MUL PUSH1 0x20 ADD PUSH1 0x40 MLOAD SWAP1 DUP2 ADD PUSH1 0x40 MSTORE DUP1 SWAP3 SWAP2 SWAP1 DUP2 DUP2 MSTORE PUSH1 0x20 ADD DUP3 DUP1 SLOAD DUP1 ISZERO PUSH2 0x50A JUMPI PUSH1 0x20 MUL DUP3 ADD SWAP2 SWAP1 PUSH1 0x0 MSTORE PUSH1 0x20 PUSH1 0x0 KECCAK256 SWAP1 JUMPDEST DUP2 PUSH1 0x0 SWAP1 SLOAD SWAP1 PUSH2 0x100 EXP SWAP1 DIV PUSH20 0xFFFFFFFFFFFFFFFFFFFFFFFFFFFFFFFFFFFFFFFF AND PUSH20 0xFFFFFFFFFFFFFFFFFFFFFFFFFFFFFFFFFFFFFFFF AND DUP2 MSTORE PUSH1 0x20 ADD SWAP1 PUSH1 0x1 ADD SWAP1 DUP1 DUP4 GT PUSH2 0x4C0 JUMPI JUMPDEST POP POP POP POP POP SWAP1 POP SWAP1 JUMP JUMPDEST PUSH1 0x0 DUP1 SLOAD DUP1 PUSH2 0x526 JUMPI PUSH2 0x525 PUSH2 0xB30 JUMP JUMPDEST JUMPDEST PUSH1 0x1 SWAP1 SUB DUP2 DUP2 SWAP1 PUSH1 0x0 MSTORE PUSH1 0x20 PUSH1 0x0 KECCAK256 ADD PUSH1 0x0 PUSH2 0x100 EXP DUP2 SLOAD SWAP1 PUSH20 0xFFFFFFFFFFFFFFFFFFFFFFFFFFFFFFFFFFFFFFFF MUL NOT AND SWAP1 SSTORE SWAP1 SSTORE JUMP JUMPDEST PUSH1 0x1 DUP2 SWAP1 DUP1 PUSH1 0x1 DUP2 SLOAD ADD DUP1 DUP3 SSTORE DUP1 SWAP2 POP POP PUSH1 0x1 SWAP1 SUB SWAP1 PUSH1 0x0 MSTORE PUSH1 0x20 PUSH1 0x0 KECCAK256 ADD PUSH1 0x0 SWAP1 SWAP2 SWAP1 SWAP2 SWAP1 SWAP2 PUSH2 0x100 EXP DUP2 SLOAD DUP2 PUSH20 0xFFFFFFFFFFFFFFFFFFFFFFFFFFFFFFFFFFFFFFFF MUL NOT AND SWAP1 DUP4 PUSH20 0xFFFFFFFFFFFFFFFFFFFFFFFFFFFFFFFFFFFFFFFF AND MUL OR SWAP1 SSTORE POP POP JUMP JUMPDEST PUSH1 0x60 PUSH1 0x0 DUP1 SLOAD DUP1 PUSH1 0x20 MUL PUSH1 0x20 ADD PUSH1 0x40 MLOAD SWAP1 DUP2 ADD PUSH1 0x40 MSTORE DUP1 SWAP3 SWAP2 SWAP1 DUP2 DUP2 MSTORE PUSH1 0x20 ADD DUP3 DUP1 SLOAD DUP1 ISZERO PUSH2 0x647 JUMPI PUSH1 0x20 MUL DUP3 ADD SWAP2 SWAP1 PUSH1 0x0 MSTORE PUSH1 0x20 PUSH1 0x0 KECCAK256 SWAP1 JUMPDEST DUP2 PUSH1 0x0 SWAP1 SLOAD SWAP1 PUSH2 0x100 EXP SWAP1 DIV PUSH20 0xFFFFFFFFFFFFFFFFFFFFFFFFFFFFFFFFFFFFFFFF AND PUSH20 0xFFFFFFFFFFFFFFFFFFFFFFFFFFFFFFFFFFFFFFFF AND DUP2 MSTORE PUSH1 0x20 ADD SWAP1 PUSH1 0x1 ADD SWAP1 DUP1 DUP4 GT PUSH2 0x5FD JUMPI JUMPDEST POP POP POP POP POP SWAP1 POP SWAP1 JUMP JUMPDEST PUSH1 0x0 PUSH1 0x1 DUP1 SLOAD SWAP1 POP SWAP1 POP SWAP1 JUMP JUMPDEST PUSH1 0x0 PUSH1 0x40 MLOAD SWAP1 POP SWAP1 JUMP JUMPDEST PUSH1 0x0 DUP1 REVERT JUMPDEST PUSH1 0x0 DUP1 REVERT JUMPDEST PUSH1 0x0 DUP2 SWAP1 POP SWAP2 SWAP1 POP JUMP JUMPDEST PUSH2 0x685 DUP2 PUSH2 0x672 JUMP JUMPDEST DUP2 EQ PUSH2 0x690 JUMPI PUSH1 0x0 DUP1 REVERT JUMPDEST POP JUMP JUMPDEST PUSH1 0x0 DUP2 CALLDATALOAD SWAP1 POP PUSH2 0x6A2 DUP2 PUSH2 0x67C JUMP JUMPDEST SWAP3 SWAP2 POP POP JUMP JUMPDEST PUSH1 0x0 PUSH1 0x20 DUP3 DUP5 SUB SLT ISZERO PUSH2 0x6BE JUMPI PUSH2 0x6BD PUSH2 0x668 JUMP JUMPDEST JUMPDEST PUSH1 0x0 PUSH2 0x6CC DUP5 DUP3 DUP6 ADD PUSH2 0x693 JUMP JUMPDEST SWAP2 POP POP SWAP3 SWAP2 POP POP JUMP JUMPDEST PUSH1 0x0 PUSH20 0xFFFFFFFFFFFFFFFFFFFFFFFFFFFFFFFFFFFFFFFF DUP3 AND SWAP1 POP SWAP2 SWAP1 POP JUMP JUMPDEST PUSH1 0x0 PUSH2 0x700 DUP3 PUSH2 0x6D5 JUMP JUMPDEST SWAP1 POP SWAP2 SWAP1 POP JUMP JUMPDEST PUSH2 0x710 DUP2 PUSH2 0x6F5 JUMP JUMPDEST DUP3 MSTORE POP POP JUMP JUMPDEST PUSH1 0x0 PUSH1 0x20 DUP3 ADD SWAP1 POP PUSH2 0x72B PUSH1 0x0 DUP4 ADD DUP5 PUSH2 0x707 JUMP JUMPDEST SWAP3 SWAP2 POP POP JUMP JUMPDEST PUSH2 0x73A DUP2 PUSH2 0x6F5 JUMP JUMPDEST DUP2 EQ PUSH2 0x745 JUMPI PUSH1 0x0 DUP1 REVERT JUMPDEST POP JUMP JUMPDEST PUSH1 0x0 DUP2 CALLDATALOAD SWAP1 POP PUSH2 0x757 DUP2 PUSH2 0x731 JUMP JUMPDEST SWAP3 SWAP2 POP POP JUMP JUMPDEST PUSH1 0x0 DUP1 PUSH1 0x0 PUSH1 0x60 DUP5 DUP7 SUB SLT ISZERO PUSH2 0x776 JUMPI PUSH2 0x775 PUSH2 0x668 JUMP JUMPDEST JUMPDEST PUSH1 0x0 PUSH2 0x784 DUP7 DUP3 DUP8 ADD PUSH2 0x693 JUMP JUMPDEST SWAP4 POP POP PUSH1 0x20 PUSH2 0x795 DUP7 DUP3 DUP8 ADD PUSH2 0x748 JUMP JUMPDEST SWAP3 POP POP PUSH1 0x40 PUSH2 0x7A6 DUP7 DUP3 DUP8 ADD PUSH2 0x748 JUMP JUMPDEST SWAP2 POP POP SWAP3 POP SWAP3 POP SWAP3 JUMP JUMPDEST PUSH2 0x7B9 DUP2 PUSH2 0x672 JUMP JUMPDEST DUP3 MSTORE POP POP JUMP JUMPDEST PUSH1 0x0 DUP2 MLOAD SWAP1 POP SWAP2 SWAP1 POP JUMP JUMPDEST PUSH1 0x0 DUP3 DUP3 MSTORE PUSH1 0x20 DUP3 ADD SWAP1 POP SWAP3 SWAP2 POP POP JUMP JUMPDEST PUSH1 0x0 DUP2 SWAP1 POP PUSH1 0x20 DUP3 ADD SWAP1 POP SWAP2 SWAP1 POP JUMP JUMPDEST PUSH2 0x7F4 DUP2 PUSH2 0x6F5 JUMP JUMPDEST DUP3 MSTORE POP POP JUMP JUMPDEST PUSH1 0x0 PUSH2 0x806 DUP4 DUP4 PUSH2 0x7EB JUMP JUMPDEST PUSH1 0x20 DUP4 ADD SWAP1 POP SWAP3 SWAP2 POP POP JUMP JUMPDEST PUSH1 0x0 PUSH1 0x20 DUP3 ADD SWAP1 POP SWAP2 SWAP1 POP JUMP JUMPDEST PUSH1 0x0 PUSH2 0x82A DUP3 PUSH2 0x7BF JUMP JUMPDEST PUSH2 0x834 DUP2 DUP6 PUSH2 0x7CA JUMP JUMPDEST SWAP4 POP PUSH2 0x83F DUP4 PUSH2 0x7DB JUMP JUMPDEST DUP1 PUSH1 0x0 JUMPDEST DUP4 DUP2 LT ISZERO PUSH2 0x870 JUMPI DUP2 MLOAD PUSH2 0x857 DUP9 DUP3 PUSH2 0x7FA JUMP JUMPDEST SWAP8 POP PUSH2 0x862 DUP4 PUSH2 0x812 JUMP JUMPDEST SWAP3 POP POP PUSH1 0x1 DUP2 ADD SWAP1 POP PUSH2 0x843 JUMP JUMPDEST POP DUP6 SWAP4 POP POP POP POP SWAP3 SWAP2 POP POP JUMP JUMPDEST PUSH1 0x0 PUSH1 0x60 DUP3 ADD SWAP1 POP PUSH2 0x892 PUSH1 0x0 DUP4 ADD DUP7 PUSH2 0x7B0 JUMP JUMPDEST PUSH2 0x89F PUSH1 0x20 DUP4 ADD DUP6 PUSH2 0x707 JUMP JUMPDEST DUP2 DUP2 SUB PUSH1 0x40 DUP4 ADD MSTORE PUSH2 0x8B1 DUP2 DUP5 PUSH2 0x81F JUMP JUMPDEST SWAP1 POP SWAP5 SWAP4 POP POP POP POP JUMP JUMPDEST PUSH1 0x0 PUSH1 0x20 DUP3 ADD SWAP1 POP PUSH2 0x8D0 PUSH1 0x0 DUP4 ADD DUP5 PUSH2 0x7B0 JUMP JUMPDEST SWAP3 SWAP2 POP POP JUMP JUMPDEST PUSH1 0x0 PUSH1 0x20 DUP3 DUP5 SUB SLT ISZERO PUSH2 0x8EC JUMPI PUSH2 0x8EB PUSH2 0x668 JUMP JUMPDEST JUMPDEST PUSH1 0x0 PUSH2 0x8FA DUP5 DUP3 DUP6 ADD PUSH2 0x748 JUMP JUMPDEST SWAP2 POP POP SWAP3 SWAP2 POP POP JUMP JUMPDEST PUSH1 0x0 DUP1 REVERT JUMPDEST PUSH1 0x0 PUSH1 0x1F NOT PUSH1 0x1F DUP4 ADD AND SWAP1 POP SWAP2 SWAP1 POP JUMP JUMPDEST PUSH32 0x4E487B7100000000000000000000000000000000000000000000000000000000 PUSH1 0x0 MSTORE PUSH1 0x41 PUSH1 0x4 MSTORE PUSH1 0x24 PUSH1 0x0 REVERT JUMPDEST PUSH2 0x951 DUP3 PUSH2 0x908 JUMP JUMPDEST DUP2 ADD DUP2 DUP2 LT PUSH8 0xFFFFFFFFFFFFFFFF DUP3 GT OR ISZERO PUSH2 0x970 JUMPI PUSH2 0x96F PUSH2 0x919 JUMP JUMPDEST JUMPDEST DUP1 PUSH1 0x40 MSTORE POP POP POP JUMP JUMPDEST PUSH1 0x0 PUSH2 0x983 PUSH2 0x65E JUMP JUMPDEST SWAP1 POP PUSH2 0x98F DUP3 DUP3 PUSH2 0x948 JUMP JUMPDEST SWAP2 SWAP1 POP JUMP JUMPDEST PUSH1 0x0 PUSH8 0xFFFFFFFFFFFFFFFF DUP3 GT ISZERO PUSH2 0x9AF JUMPI PUSH2 0x9AE PUSH2 0x919 JUMP JUMPDEST JUMPDEST PUSH1 0x20 DUP3 MUL SWAP1 POP PUSH1 0x20 DUP2 ADD SWAP1 POP SWAP2 SWAP1 POP JUMP JUMPDEST PUSH1 0x0 DUP1 REVERT JUMPDEST PUSH1 0x0 PUSH2 0x9D8 PUSH2 0x9D3 DUP5 PUSH2 0x994 JUMP JUMPDEST PUSH2 0x979 JUMP JUMPDEST SWAP1 POP DUP1 DUP4 DUP3 MSTORE PUSH1 0x20 DUP3 ADD SWAP1 POP PUSH1 0x20 DUP5 MUL DUP4 ADD DUP6 DUP2 GT ISZERO PUSH2 0x9FB JUMPI PUSH2 0x9FA PUSH2 0x9C0 JUMP JUMPDEST JUMPDEST DUP4 JUMPDEST DUP2 DUP2 LT ISZERO PUSH2 0xA24 JUMPI DUP1 PUSH2 0xA10 DUP9 DUP3 PUSH2 0x748 JUMP JUMPDEST DUP5 MSTORE PUSH1 0x20 DUP5 ADD SWAP4 POP POP PUSH1 0x20 DUP2 ADD SWAP1 POP PUSH2 0x9FD JUMP JUMPDEST POP POP POP SWAP4 SWAP3 POP POP POP JUMP JUMPDEST PUSH1 0x0 DUP3 PUSH1 0x1F DUP4 ADD SLT PUSH2 0xA43 JUMPI PUSH2 0xA42 PUSH2 0x903 JUMP JUMPDEST JUMPDEST DUP2 CALLDATALOAD PUSH2 0xA53 DUP5 DUP3 PUSH1 0x20 DUP7 ADD PUSH2 0x9C5 JUMP JUMPDEST SWAP2 POP POP SWAP3 SWAP2 POP POP JUMP JUMPDEST PUSH1 0x0 DUP1 PUSH1 0x0 DUP1 PUSH1 0x80 DUP6 DUP8 SUB SLT ISZERO PUSH2 0xA76 JUMPI PUSH2 0xA75 PUSH2 0x668 JUMP JUMPDEST JUMPDEST PUSH1 0x0 PUSH2 0xA84 DUP8 DUP3 DUP9 ADD PUSH2 0x693 JUMP JUMPDEST SWAP5 POP POP PUSH1 0x20 PUSH2 0xA95 DUP8 DUP3 DUP9 ADD PUSH2 0x693 JUMP JUMPDEST SWAP4 POP POP PUSH1 0x40 PUSH2 0xAA6 DUP8 DUP3 DUP9 ADD PUSH2 0x748 JUMP JUMPDEST SWAP3 POP POP PUSH1 0x60 DUP6 ADD CALLDATALOAD PUSH8 0xFFFFFFFFFFFFFFFF DUP2 GT ISZERO PUSH2 0xAC7 JUMPI PUSH2 0xAC6 PUSH2 0x66D JUMP JUMPDEST JUMPDEST PUSH2 0xAD3 DUP8 DUP3 DUP9 ADD PUSH2 0xA2E JUMP JUMPDEST SWAP2 POP POP SWAP3 SWAP6 SWAP2 SWAP5 POP SWAP3 POP JUMP JUMPDEST PUSH1 0x0 PUSH1 0x20 DUP3 ADD SWAP1 POP DUP2 DUP2 SUB PUSH1 0x0 DUP4 ADD MSTORE PUSH2 0xAF9 DUP2 DUP5 PUSH2 0x81F JUMP JUMPDEST SWAP1 POP SWAP3 SWAP2 POP POP JUMP JUMPDEST PUSH32 0x4E487B7100000000000000000000000000000000000000000000000000000000 PUSH1 0x0 MSTORE PUSH1 0x32 PUSH1 0x4 MSTORE PUSH1 0x24 PUSH1 0x0 REVERT JUMPDEST PUSH32 0x4E487B7100000000000000000000000000000000000000000000000000000000 PUSH1 0x0 MSTORE PUSH1 0x31 PUSH1 0x4 MSTORE PUSH1 0x24 PUSH1 0x0 REVERT INVALID LOG2 PUSH5 0x6970667358 0x22 SLT KECCAK256 PUSH27 0x718AB4455D5A473BC15E0F571D1EF3E5C46423E631AA027A44DF57 PUSH25 0x84D79064736F6C634300080F00330000000000000000000000 "
				},
				"gasEstimates": {
					"creation": {
						"codeDepositCost": "593000",
						"executionCost": "625",
						"totalCost": "593625"
					},
					"external": {
						"connectors(uint256)": "4980",
						"getConnectors()": "infinite",
						"getLengthConnector()": "2533",
						"getLengthRouter()": "2534",
						"getRouters()": "infinite",
						"popConnector()": "48745",
						"popRouter()": "48700",
						"pushConnector(address)": "49078",
						"pushRouter(address)": "49057",
						"quote(uint256,address,address)": "infinite",
						"removeConnector(uint256)": "26874",
						"removeRouter(uint256)": "26851",
						"routers(uint256)": "5024",
						"swap(uint256,uint256,address,address[])": "infinite"
					}
				},
				"methodIdentifiers": {
					"connectors(uint256)": "13ede1a1",
					"getConnectors()": "c74eaa11",
					"getLengthConnector()": "fdbe1ec3",
					"getLengthRouter()": "931f2243",
					"getRouters()": "f88c31ce",
					"popConnector()": "8279160c",
					"popRouter()": "eaaabef4",
					"pushConnector(address)": "ec60dbe9",
					"pushRouter(address)": "9d964cfe",
					"quote(uint256,address,address)": "80ee43f5",
					"removeConnector(uint256)": "18ed311e",
					"removeRouter(uint256)": "72882732",
					"routers(uint256)": "4e9c1118",
					"swap(uint256,uint256,address,address[])": "b3d69dac"
				}
			},
			"storageLayout": {
				"storage": [
					{
						"astId": 4,
						"contract": "CrossSwap.sol:crossSwap",
						"label": "routers",
						"offset": 0,
						"slot": "0",
						"type": "t_array(t_address)dyn_storage"
					},
					{
						"astId": 7,
						"contract": "CrossSwap.sol:crossSwap",
						"label": "connectors",
						"offset": 0,
						"slot": "1",
						"type": "t_array(t_address)dyn_storage"
					}
				],
				"types": {
					"t_address": {
						"encoding": "inplace",
						"label": "address",
						"numberOfBytes": "20"
					},
					"t_array(t_address)dyn_storage": {
						"base": "t_address",
						"encoding": "dynamic_array",
						"label": "address[]",
						"numberOfBytes": "32"
					}
				}
			},
			"userdoc": {
				"kind": "user",
				"methods": {},
				"version": 1
			}
		}
	}
}